:100000000C943E000C945B000C945B000C945B0021
:100010000C945B000C945B000C945B000C945B00F4
:100020000C9407090C945B000C945B000C945B002F
:100030000C945B000C945B000C945B000C945B00D4
:100040000C945B000C945B000C945B000C945B00C4
:100050000C945B00A601A801AA01AC01AE01B0019D
:10006000B201B401B601B801C501C701CA01CC0192
:10007000CE01D001D201D401D601D80111241FBE76
:10008000CFE5D4E0DEBFCDBF10E0A0E6B0E0E8EC05
:10009000F5E102C005900D92A23FB107D9F721E02A
:1000A000A2EFB0E001C01D92A132B207E1F70E94B9
:1000B000E3090C94E20A0C9400001F93CF93DF93A2
:1000C000CDB7DEB727970FB6F894DEBF0FBECDBF12
:1000D000883120F46C3310F4162F02C010E080E059
:1000E0000E94C4098B83812F0E94C4098A838AE0FD
:1000F0000E94C40989838BE00E94C4098D8388E033
:100100000E94C4098E8383E10E94C4098F8387E023
:100110008C83CE0101960E94750927960FB6F8943C
:10012000DEBF0FBECDBFDF91CF911F9108958091AB
:10013000EC009091ED00A091EE00B091EF00809363
:10014000FA008091EC009091ED00A091EE00B0914A
:10015000EF00CC97A105B1056CF08091F8008F5F9E
:100160008093F8001092EC001092ED001092EE00D7
:100170001092EF008091F8008C3338F08091F900F4
:100180008F5F8093F9001092F8008091F900883118
:1001900010F01092F900089592E083B38F70806898
:1001A00085BB8091D0008BBBE7EEF3E03197F1F790
:1001B00000C0000083B38F70806485BB8091D10044
:1001C0008BBBE7EEF3E03197F1F700C0000083B39B
:1001D0008F70806285BB8091D2008BBBE7EEF3E02D
:1001E0003197F1F700C0000083B38F70806185BB49
:1001F0008091D3008BBBE7EEF3E03197F1F700C0BD
:100200000000915051F608959AE05FEF41E936E021
:1002100022E983B38F7085BB5BBBE7EEF3E03197D8
:10022000F1F700C0000083B38F70806485BB4BBBC7
:10023000E7EEF3E03197F1F700C0000083B38F7071
:10024000806285BB3BBBE7EEF3E03197F1F700C07E
:10025000000083B38F70806185BB2BBBE7EEF3E0BA
:100260003197F1F700C00000915099F608952F9250
:100270003F924F925F926F927F928F929F92AF9236
:10028000BF92CF92DF92EF92FF920F931F93CF9383
:10029000DF93CDB7DEB72B970FB6F894DEBF0FBE56
:1002A000CDBF89836A834B832C83D090E200B090CA
:1002B000EB009090EA008090E9007090E800609078
:1002C000E7005090E6004090E5003090E400209078
:1002D000E3004091D8004D838091D9008E834091F6
:1002E000DA004F838091DB0088874091DC004987EA
:1002F0008091DD008A874091DE004B879091DF007E
:100300001091E000F090E100A0EDB0E09E012F5FC1
:100310003F4F80E0811103C001110DC02BC081301F
:1003200019F4E11008C026C0823019F4C11003C0CE
:1003300021C0AA20F9F0F901408150E04A3051056E
:10034000C0F5FA01E65DFF4F0C94DC0ADC9231C087
:100350002C922FC03C922DC04C922BC05C9229C095
:100360006C9227C07C9225C08C9223C09C9221C0A5
:10037000BC921FC0F901408150E04A305105C8F4D9
:10038000FA01EC5CFF4F0C94DC0A4D8101C04E81F8
:100390004C930FC04F81FCCF4885FACF4985F8CFE9
:1003A0004A85F6CF4B85F4CF9C9303C01C9301C0C4
:1003B000FC928F5F11962F5F3F4F843009F0AACFD8
:1003C0002B960FB6F894DEBF0FBECDBFDF91CF9155
:1003D0001F910F91FF90EF90DF90CF90BF90AF9063
:1003E0009F908F907F906F905F904F903F902F9055
:1003F0000895E0EDF0E080836183428323830895D4
:100400009091D8009093D0009093D1008A3060F002
:100410006AE00E94C20AE82FF0E0E852FF4F8081B4
:100420008093D200E92F03C09093D200E82FF0E030
:10043000E852FF4F80818093D3000895CF92DF92DE
:10044000EF92FF920F931F93CF93DF93DC016B0129
:10045000E7018091FA008A3038F06AE00E94C20A0F
:10046000F8018083988303C0F8011082888380910B
:10047000F8008A3040F06AE00E94C20AFA018083E4
:10048000F901908304C0FA011082F9018083809100
:10049000F9008A3038F06AE00E94C20A8C93F601B3
:1004A000908303C01C92F6018083DF91CF911F914E
:1004B0000F91FF90EF90DF90CF900895DF92EF9231
:1004C000FF920F931F93CF93DF93D62EE801D701AE
:1004D0008A3040F06AE00E94C20AFA018083F90182
:1004E000908304C0FA011082F9018083F9E0FD15C0
:1004F00038F48D2D6AE00E94C20A88839C9302C062
:100500001882DC92DF91CF911F910F91FF90EF90B5
:10051000DF900895CF931092F60080B38F708E30E5
:1005200009F474C080B38F708D3039F481E080930A
:10053000F3008093F4008BE06AC080B38F708B303F
:1005400059F5C0E08C2F0E9400020E94CC0080B3BD
:100550008F708E3079F180B38F70873019F4C111AC
:1005600001C0CAE080B38F70873009F4C15080B3F6
:100570008F708B3019F4C93009F4CFEF80B38F70CE
:100580008B3009F4CF5F80B38F708730E1F380B395
:100590008F708B30E1F3D6CF80B38F70873091F5B9
:1005A000CAE08C2F0E9400020E94CC0080B38F70A2
:1005B0008E3039F481E08093F200C093F6008C2FE6
:1005C00026C080B38F70873019F4C11101C0CAE012
:1005D00080B38F70873009F4C15080B38F708B3037
:1005E00019F4C93009F4CFEF80B38F708B3009F460
:1005F000CF5F80B38F708730E1F380B38F708B3023
:10060000E1F3CFCF1092F20082E301C08AE0CF91F4
:10061000089590B39F7081E09E3009F080E00895C6
:1006200090B39F7081E09D3009F080E008950E94B2
:100630008A0287708730D9F708952F923F924F92A0
:100640005F926F927F928F929F92AF92CF92EF9232
:10065000FF920F931F93CF93DF9300D000D0CDB7BD
:10066000DEB74C013B012A01190119821A821B8253
:100670001C82F12C10E00E948A028A3068F4F1108A
:100680000FC0E1E0F0E0EC0FFD1FE10FF11D8083F2
:100690001F5FFF24F3941AC08B3099F18233A9F0C5
:1006A0001430A1F48A30C9F40E948A028B30E1F739
:1006B0008981F40180838A81F30180838B81F20137
:1006C00080838C81F10180831CC0F12C153028F0CF
:1006D00019821A821B821C8210E08FE097E2019738
:1006E000F1F700C00000A12CC12CEE24E39400E03F
:1006F0002C814B816A8189810E9437010E94CC0044
:10070000BACF80E00F900F900F900F90DF91CF91B4
:100710001F910F91FF90EF90CF90AF909F908F908F
:100720007F906F905F904F903F902F900895CF9360
:10073000DF9300D000D0CDB7DEB79E012F5F3F4FD3
:10074000AE014E5F5F4FBE016D5F7F4FCE010496DD
:100750000E941D039C81933020F58B81843020F012
:100760009230F9F08A30E8F48A818630D0F48981B9
:100770008A30B8F40E9404010E948A028B3019F07A
:100780000E94CC00F7CF8A8169812AE0829F600DA8
:1007900011249C818B812AE0929F800D11240E945C
:1007A0005D000F900F900F900F90DF91CF91089503
:1007B000E199FECF90E09FBB8EBB6DBBE29AE19AC0
:1007C0000895E199FECF90E09FBB8EBBE09A8DB378
:1007D0000895EF92FF920F931F93CF93DF93CAEC8C
:1007E000D0E002E910E089910E94E103F8018193D1
:1007F0008F01F0E0C03DDF07B1F7C3ECD0E00BE8BC
:1008000010E089910E94E103F80181938F01F0E0EB
:10081000C93CDF07B1F7CCEBD0E004E810E08991E8
:100820000E94E103F80181938F01F0E0C23CDF07F1
:10083000B1F7C5EBD0E00DE710E089910E94E1032C
:10084000F80181938F01F0E0CB3BDF07B1F7CEEAEF
:10085000D0E006E710E089910E94E103F80181935E
:100860008F01F0E0C43BDF07B1F7C7EAD0E00FE645
:1008700010E02DEAE22E20E0F22E89910E94E103A1
:10088000F80181938F01EC16FD06B9F7C0EAD0E0BC
:1008900008E610E096EAE92E90E0F92E89910E9490
:1008A000E103F80181938F01EC16FD06B9F7C9E960
:1008B000D0E001E610E08FE9E82E80E0F82E899183
:1008C0000E94E103F80181938F01EC16FD06B9F750
:1008D000DF91CF911F910F91FF90EF900895EF92CC
:1008E000FF920F931F93CF93DF93D801F7018130CD
:1008F000B1F470E0EB01CF56DF4F8881EA018883C5
:10090000EB01C657DF4F8881E9018883EB01CD57A2
:10091000DF4F88818C93DB01A458BF4F17C0823012
:10092000B9F470E0EB01CB58DF4F8881EA0188838E
:10093000EB01C259DF4F8881E9018883EB01C95976
:10094000DF4F88818C93DB01A05ABF4F8C9180834D
:10095000DF91CF911F910F91FF90EF900895DF925B
:10096000EF92FF920F931F93CF93DF93CDB7DEB734
:1009700028970FB6F894DEBF0FBECDBF182F062FF5
:1009800086E88093D0008FEB8093D10080EC809339
:10099000D2008BEA8093D3000E94CC000E948A028E
:1009A0008A30D1F78091F2008111F6CF9E012B5F42
:1009B0003F4FAE014A5F5F4FBE01695F7F4FCE017F
:1009C00008960E941D0386E88093D0008FEB8093E9
:1009D000D10080EC8093D2008EE88093D3000E94F7
:1009E000CC000E948A028A30D1F79E012F5F3F4FD0
:1009F000AE014E5F5F4FBE016D5F7F4FCE0104962B
:100A00000E941D039885933008F082C08F81843046
:100A100030F0923009F47CC08A3008F079C08E81C1
:100A2000863008F075C08D818A3008F071C09C81D5
:100A3000933008F06DC08B81843030F0923009F42F
:100A400067C08A3008F064C08A81863008F060C0D0
:100A500089818A3008F05CC00E9404010E948A02E9
:100A60008B3019F00E94CC00F7CF88856F819AE017
:100A7000899F600D11248E81FD809AE0899FF00C82
:100A800011248C81DB809AE0899FD00C11248A810B
:100A9000E9809AE0899FE00C11241130C9F410E03C
:100AA000F801E753FF4F80810E94D803F801EE530D
:100AB000FF4F6F2D80810E94D803F801E554FF4F4E
:100AC0006D2D80810E94D803F801EC54FF4F1AC0AD
:100AD0001230F1F410E0F801E355FF4F80810E94DD
:100AE000D803F801EA55FF4F6F2D80810E94D8038B
:100AF000F801E156FF4F6D2D80810E94D803F80167
:100B0000E856FF4F6E2D80810E94D8030E94E903B2
:100B100028960FB6F894DEBF0FBECDBFDF91CF9100
:100B20001F910F91FF90EF90DF9008952F923F92C9
:100B30004F925F926F927F928F929F92AF92BF92ED
:100B4000CF92DF92EF92FF920F931F93CF93DF9399
:100B500000D000D0CDB7DEB7B82ED62E842E722EA0
:100B6000602E5E2C9924939487EC482E9EEC392EAF
:100B70002CE2222ECE0101967C018E010E5F1F4FCA
:100B80009E012D5F3F4FAE014C5F5F4F992031F0CA
:100B9000672D882D0E945E02A12C06C0652D862D32
:100BA0000E945E02AA24A394C12CEE24E39400E0E8
:100BB00029814A816B818C810E9437010E948A02BF
:100BC0008A3061F481E098269FE72AE186E091501F
:100BD00020408040E1F700C0000021C08B3009F4C4
:100BE0006BC0811112C096EC9093D0004092D1005E
:100BF0003092D2002092D3000E948A02813091F07C
:100C0000882369F00E94CC00F7CF893029F46D2D3C
:100C10008B2D0E94AF0450C0883009F44DC00E9453
:100C2000CC00A8CF21E0B2121BC00D2D10E0F801BE
:100C3000E753FF4F68E580810E94D803F801EE5327
:100C4000FF4F68E580810E94D803F801E554FF4F0B
:100C500068E580810E94D803F801EC54FF4F1DC065
:100C600082E0B812DCCF0D2D10E0F801E355FF4F04
:100C700068E580810E94D803F801EA55FF4F68E5D6
:100C800080810E94D803F801E156FF4F68E580811A
:100C90000E94D803F801E856FF4F68E580810E9462
:100CA000D8030E94E9032FE78AE196E021508040B3
:100CB0009040E1F700C000000F900F900F900F9050
:100CC000DF91CF911F910F91FF90EF90DF90CF9028
:100CD000BF90AF909F908F907F906F905F904F905C
:100CE0003F902F9008958F929F92AF92BF92CF9294
:100CF000DF92EF92FF920F931F93CF93DF9300D079
:100D000000D0CDB7DEB7D12C76E8C72EEBEABE2EE9
:100D1000F7E8AF2EAEEC9A2E10EC0CE8BFEBFB2EF2
:100D200089EF882E94EAE92ED11008C0C092D00035
:100D3000B092D100A092D2009092D3000E948A0279
:100D4000813039F08230C9F08B3091F181E0D812D6
:100D500011C01093D0000093D100F092D200809285
:100D6000D3000E948A028A30D9F48091F200DD24F7
:100D7000D39413C092E0D91218C01093D0000093FE
:100D8000D100F092D200E092D3000E948A028A3011
:100D900051F48091F20062E0D62E811106C008C0A5
:100DA000DD24D39402C052E0D52E0E94CC00BCCFEB
:100DB0008FEF8D0D823008F0B3C082E9C82E97EC1A
:100DC000B92E20ECA22E37E8932E4FEB842EC09242
:100DD000D000B092D100A092D2009092D3000E9495
:100DE000CC000E948A028BBA833009F450C0D8F438
:100DF0008130B9F1823009F08EC0CE0101967C01BC
:100E00008E010E5F1F4F9E012D5F3F4FAE014C5F65
:100E10005F4F62E08D2D0E946F04E9800A812B8173
:100E20004C8162E075C0853009F45DC008F445C0AE
:100E3000863009F070C0CE0101967C018E010E5FF4
:100E40001F4F9E012D5F3F4FAE014C5F5F4F66E02D
:100E50008D2D0E946F04E9800A812B814C8166E010
:100E600057C0CE0101967C018E010E5F1F4F9E017F
:100E70002D5F3F4FAE014C5F5F4F61E08D2D0E94B3
:100E80006F04E9800A812B814C8161E041C0CE0171
:100E900001967C018E010E5F1F4F9E012D5F3F4F1B
:100EA000AE014C5F5F4F63E08D2D0E946F04E980BF
:100EB0000A812B814C8163E02BC0CE0101967C011D
:100EC0008E010E5F1F4F9E012D5F3F4FAE014C5FA5
:100ED0005F4F64E08D2D0E946F04E9800A812B81B1
:100EE0004C8164E015C0CE0101967C018E010E5F3D
:100EF0001F4F9E012D5F3F4FAE014C5F5F4F65E07E
:100F00008D2D0E946F04E9800A812B814C8165E060
:100F10008D2D0E9496050E948A028B3009F057CFD2
:100F20000F900F900F900F90DF91CF911F910F9125
:100F3000FF90EF90DF90CF90BF90AF909F908F90F9
:100F400008950F931F93CF93DF9302E910E044E8D5
:100F500050E0ECE7F0E0AAE8B0E031E0E801899188
:100F60008E01EA019991AE01891740F52091F900AF
:100F7000281720F1921710F1821314C011966C916A
:100F800011972091F800261750F183B3877F85BB16
:100F900046E750E008E610E0E0E6F0E0AEE6B0E05C
:100FA00031E068C0921306C061812091F800621799
:100FB00028F0EBCF821710F4291738F3891311C0EA
:100FC0009091F80011962C911197921778F1218148
:100FD000921760F59091F900891328C0D6CF891730
:100FE00019F3981718F52091F900281710F02831F7
:100FF00010F09217D8F0821308C011966C911197D7
:101000008091F800861760F0C0CF921306C061810E
:101010002091F800621738F0B8CF821708F4B5CFE6
:10102000291720F4B2CF891708F4AFCF363019F45E
:1010300083B3886085BB3F5F31961196373009F0E6
:101040008DCFA6CF2091F9002817E8F489133EC070
:101050009091F80011962C911197921768F53630FF
:1010600019F483B3846085BB3F5F319611963730A6
:1010700009F456C0EA018991AE01E80199918E0107
:10108000891720F7DFCF921708F3821308C0119653
:101090006C9111972091F8002617B0F039C0921387
:1010A00006C061812091F800621780F231C082177A
:1010B00068F6291758F62CC02181921780F6909176
:1010C000F9008913CCCF24C0891759F3981738F643
:1010D0002091F900281710F0283118F0921708F421
:1010E000BECF821308C011966C9111978091F800C1
:1010F000861758F00DC0921306C061812091F80048
:10110000621750F005C0821718F0291708F0A7CF12
:1011100083B38B7F85BB04C0891708F0A0CFF8CFBD
:10112000DF91CF911F910F9108951FBC85E08EBD77
:1011300084E089BF0895BF92CF92DF92EF92FF9231
:101140000F931F93CF93DF93C0E016EC87ECF82E3C
:10115000DFEB99E8E92E00EC22E9D22E3CE8C32E21
:101160004CE2B42E0E948A028B3009F446C0809172
:10117000F600813019F41092F600C1E08091F6007B
:10118000823019F41092F600C2E00E94CC00C13007
:1011900069F018F0C230E9F0E5CF1093D000E0928A
:1011A000D1000093D200D092D300DCCF1093D000B6
:1011B000F092D100D093D200D093D3000E948A0243
:1011C0008A3081F68091F2008111CCCF0E94970382
:1011D000C9CF0093D000C092D100D093D200B0927A
:1011E000D3000E948A028A3009F0BCCF8091F200BD
:1011F0008111B8CF0E947306B5CFDF91CF911F91B7
:101200000F91FF90EF90DF90CF90BF9008951F92C5
:101210000F920FB60F9211248F939F93AF93BF93AA
:101220008DEB90EF9DBD8CBD8091EC009091ED0019
:10123000A091EE00B091EF000196A11DB11D809329
:10124000EC009093ED00A093EE00B093EF00BF91FF
:10125000AF919F918F910F900FBE0F901F90189597
:1012600080B9089584EA86BF06B607FEFDCF0895CB
:1012700083B984E886BF06B607FEFDCF0895CF93F5
:10128000DF93D82FC62F0E9432098D2F0E94380974
:101290008C2F0E94380984E986BFDF91CF91089591
:1012A00084E986BF089584EC86BF06B607FEFDCFAD
:1012B00083B1089584E886BF06B607FEFDCF83B1EB
:1012C00008958CE090E00E9430090E94320980ED80
:1012D0000E9438098EE00E94380980E00E94380997
:1012E0000E9450098CE090E00895CF93DF93EC01C9
:1012F0000E94320980ED0E94380980E00E9438097E
:1013000088810E94380989810E9438098A810E9457
:1013100038098B810E9438098C810E9438098D819F
:101320000E9438098E810E943809DF91CF910C9478
:101330005009CF93DF93EC010E94320980ED0E94A7
:10134000380980E00E9438090E9450090E94320941
:1013500081ED0E9438090E94530988830E94530935
:1013600089830E9453098A830E9453098B830E94B8
:1013700053098C830E9453098D830E945A098E83DE
:10138000DF91CF910C9450096AE00E94CE0A20E1CF
:10139000829F900D1124892F0895982F87FF02C0F6
:1013A0009FE0980F9595959595959595990F292F6F
:1013B000220F220F920F8F7887FF03C08150806F1A
:1013C0008F5F890F0895CF93DF9300D000D000D0B6
:1013D000CDB7DEB70E94E9038FEF8ABB84BB90E7ED
:1013E00091BB82BB8CEF85BB8FEB8BBB0E949508BA
:1013F0009091F40081E089278093F4000E948A0292
:101400008C30A0F4A12CC12CEE24E39400E025E064
:1014100045E065E085E00E9437010E94CC000E9413
:101420008A028B30D1F71092F00078948091F0000E
:1014300081110E9461098CE3D82E1E821D821C82BC
:101440001B821A8219828091F0008823B9F084E10E
:1014500091E00E949909809114010E94CD09809326
:10146000FA00809116010E94CD098093F9008091C5
:1014700015010E94CD098093F80002C00E949700D8
:10148000CE0101967C018E010E5F1F4F9E012D5FE4
:101490003F4FAE014C5F5F4FBE016B5F7F4F0596C4
:1014A0000E941E028091F4008823E9F08091F700E9
:1014B000882359F0AA24A394C12CEE24E39400E0DD
:1014C00029814A816B818C8109C0A12CC12CEE2419
:1014D000E39400E02B814C816D818E810E94370165
:1014E0000E94CC000DC0A12CC12CE12C00E020E01A
:1014F00040E060E080E00E94370183B38F7085BBDD
:101500000E948A028A30A9F48091F00081110FC0F4
:101510001092EC001092ED001092EE001092EF008D
:101520001092FA001092F8001092F90002C00E9486
:101530009B080E948A028B3079F49091F70081E039
:1015400089278093F7009FE72AE186E091502040A9
:101550008040E1F700C000008091F800D81681F0CB
:101560008091F300811108C09CE3D91629F01092F4
:10157000F40081E08093F3000E94A1078091F800BD
:10158000D82E5BCF991B79E004C0991F961708F0FD
:10159000961B881F7A95C9F78095089587FB082EBA
:1015A000062687FD819567FD61950E94C20A0EF4AB
:1015B000919507FC81950895EE0FFF1F0590F4911A
:0815C000E02D0994F894FFCF1F
:1015C8003D3D3D3D3D3D3D191919191919193C3C41
:1015D8003C3C3C3C3C181818181818183D3D3D3D3B
:1015E8003D3D3D191919191919193C3C3C3C3C3C25
:1015F8003C18181818181818343435363738392E56
:101608002E2F303132332828292A2B2C2D22222321
:10161800242526271C1C1D1E1F20211616171819E5
:101628001A1B101011121314150A0A0B0C0D0E0FA9
:101638004079243070B0D0E0C0F9A4B0999282F813
:1016480080904079243019120278001003000000BD
:0216580001008F
:00000001FF
