:100000000C943E000C9453000C9453000C94530039
:100010000C9453000C9453000C9453000C94530014
:100020000C9453000C9453000C9453000C94530004
:100030000C9453000C9453000C9453000C945300F4
:100040000C9453000C9453000C9453000C945300E4
:100050000C945300E400E600E900EC00EF00F1002E
:10006000F300F500F700F90008010A010C010E0188
:10007000100112011401160118011A0111241FBEEA
:10008000CFE5D4E0DEBFCDBF10E0A0E6B0E0E4E510
:10009000F4E002C005900D92A038B107D9F70E9494
:1000A0000D020C9428020C9400008AE050E840E411
:1000B00030E290E1209160002BBB55BBE9EFF0E00E
:1000C0003197F1F700C00000209161002BBB45BBC8
:1000D000E9EFF0E03197F1F700C0000020916200F5
:1000E0002BBB35BBE9EFF0E03197F1F700C0000022
:1000F000209163002BBB95BBE9EFF0E03197F1F75E
:1001000000C000008150B1F608952F923F924F92A7
:100110005F926F927F928F929F92AF92BF92CF9297
:10012000DF92EF92FF920F931F93CF93DF93CDB7A0
:10013000DEB72B970FB6F894DEBF0FBECDBF898315
:100140006A834B832C83209172002D8330917B0036
:100150003E8340917A004F83809179008887209177
:1001600078002987309177003A87409176004B8755
:1001700090917500D0907400C0907300B0906800AA
:10018000A090690090906A0080906B0070906C0065
:1001900060906D0050906E0040906F003090700045
:1001A00020907100FE0131967F01A0E6B0E080E072
:1001B000062F10E0813009F50A301105E0F5F8014D
:1001C000E65DFF4F0C9422024D8114C0C092610085
:1001D00032C0D09261002FC0909361002CC04B853B
:1001E00009C04A8507C0498505C0488503C04F81BD
:1001F00001C04E81409361001EC0F701408150E074
:100200004A305105C0F4FA01EC5CFF4F0C94220215
:10021000BC9211C0AC920FC09C920DC08C920BC0CE
:100220007C9209C06C9207C05C9205C04C9203C0DE
:100230003C9201C02C928F5FFFEFEF1AFF0A1196DC
:10024000843009F0B7CF2B960FB6F894DEBF0FBEFF
:10025000CDBFDF91CF911F910F91FF90EF90DF9075
:10026000CF90BF90AF909F908F907F906F905F9056
:100270004F903F902F900895CF93DF9300D000D000
:10028000CDB7DEB780917C0090917D00A0917E007B
:10029000B0917F0089839A83AB83BC83FE01319642
:1002A0009E012B5F3F4F819182BB89EF90E00197C8
:1002B000F1F700C0000080B38F778F3789F18E355A
:1002C00039F178F48E3301F130F48B33D9F08D337A
:1002D00039F582E02CC08B35C9F08D3509F585E004
:1002E00026C08E36C9F030F48B36A1F08D36C1F4BD
:1002F00088E01DC08537D1F0863781F0833781F4DF
:100300008AE015C081E013C083E011C084E00FC013
:1003100086E00DC087E00BC089E009C08BE007C014
:10032000E217F30709F0BFCF82E301C080E00F902E
:100330000F900F900F90DF91CF9108950F931F931F
:10034000CF93DF9300D000D0CDB7DEB719821A82E9
:100350001B821C8280EF85BB00E010E00E943C0104
:100360008A3060F401110FC0E1E0F0E0EC0FFD1FF6
:10037000E10FF11D80831F5F01E023C08B3009F482
:1003800042C08233E9F01430E1F48A3009F581E9A2
:100390008093600086E08093610082E98093620030
:1003A0008FEF809363000E9455000E943C018B30C8
:1003B000D1F724E043E062E081E00E94850023C0A1
:1003C00000E0153028F019821A821B821C8210E08E
:1003D00083EC99E00197F1F700C000008981833038
:1003E00008F0BCCF6A81653008F0B8CF4B81463049
:1003F00008F0B4CF2C812A3008F0B0CF0E948500DD
:100400000E945500ABCF80E00F900F900F900F909F
:10041000DF91CF911F910F9108958FEF8ABB84BB1D
:1004200098E791BB82BB29E045E065E080E00E944F
:1004300085000E943C018A3011F40E949E010E94B6
:100440005500F7CFEE0FFF1F0590F491E02D0994B2
:04045000F894FFCF4E
:100454004079243070B0D0E0C0F9A4B0999282F809
:100464008090407924301912027800103F5F6F7732
:00000001FF
