:100000000C943E000C945B000C945B000C945B0021
:100010000C945B000C945B000C945B000C945B00F4
:100020000C945B000C945B000C945B000C945B00E4
:100030000C945B000C945B000C945B000C945B00D4
:100040000C945B000C945B000C945B000C945B00C4
:100050000C945B001D011F012201250128012A01CA
:100060002C012E01300132014101430145014701BC
:1000700049014B014D014F015101530111241FBE94
:10008000CFE5D4E0DEBFCDBF10E0A0E6B0E0E2EC0B
:10009000F6E002C005900D92A038B107D9F720E034
:1000A000A0E8B0E001C01D92AE38B207E1F70E94AF
:1000B000F9020C945F030C940000CF93DF93CDB74B
:1000C000DEB727970FB6F894DEBF0FBECDBF83E033
:1000D0000E94DA028B8388E00E94DA028A838AE037
:1000E0000E94DA02898388E10E94DA028D8386E029
:1000F0000E94DA028E8383E10E94DA028F8387E016
:100100008C83CE0101960E948B0227960FB6F8943D
:10011000DEBF0FBECDBFDF91CF9108958AE050E8DA
:1001200040E430E290E155BB209160002BBBE7EE4C
:10013000F3E03197F1F700C00000209161002BBB84
:1001400045BBE7EEF3E03197F1F700C000002091E6
:1001500062002BBB35BBE7EEF3E03197F1F700C04F
:100160000000209163002BBB95BBE7EEF3E03197D5
:10017000F1F700C000008150B1F608952F923F9230
:100180004F925F926F927F928F929F92AF92BF92A7
:10019000CF92DF92EF92FF920F931F93CF93DF9353
:1001A000CDB7DEB72B970FB6F894DEBF0FBECDBF2D
:1001B00089836A834B832C83209172002D83309135
:1001C0007B003E8340917A004F838091790088873D
:1001D000209178002987309177003A874091760006
:1001E0004B8790917500D0907400C0907300B090D0
:1001F0006800A090690090906A0080906B007090F9
:100200006C0060906D0050906E0040906F003090D8
:10021000700020907100FE0131967F01A0E6B0E0F1
:1002200080E0062F10E0813009F50A301105E0F575
:10023000F801E65DFF4F0C9459034D8114C0C09244
:10024000610032C0D09261002FC0909361002CC039
:100250004B8509C04A8507C0498505C0488503C04C
:100260004F8101C04E81409361001EC0F701408163
:1002700050E04A305105C0F4FA01EC5CFF4F0C9499
:100280005903BC9211C0AC920FC09C920DC08C92CD
:100290000BC07C9209C06C9207C05C9205C04C9266
:1002A00003C03C9201C02C928F5FFFEFEF1AFF0A50
:1002B0001196843009F0B7CF2B960FB6F894DEBFB5
:1002C0000FBECDBFDF91CF911F910F91FF90EF90A7
:1002D000DF90CF90BF90AF909F908F907F906F9066
:1002E0005F904F903F902F900895CF93DF9300D071
:1002F00000D0CDB7DEB780917C0090917D00A091B9
:100300007E00B0917F0089839A83AB83BC83FE011A
:1003100031969E012B5F3F4F819182BB87EE93E028
:100320000197F1F700C0000080B38F778F3789F114
:100330008E3539F178F48E3301F130F48B33D9F006
:100340008D3339F582E02CC08B35C9F08D3509F538
:1003500085E026C08E36C9F030F48B36A1F08D369C
:10036000C1F488E01DC08537D1F0863781F083372E
:1003700081F48AE015C081E013C083E011C084E0FD
:100380000FC086E00DC087E00BC089E009C08BE09C
:1003900007C0E217F30709F0BFCF82E301C080E096
:1003A0000F900F900F900F90DF91CF9108950F93C2
:1003B0001F93CF93DF9300D000D0CDB7DEB7198263
:1003C0001A821B821C8280EF85BB00E010E00E9435
:1003D00075018A3060F401110FC0E1E0F0E0EC0F2C
:1003E000FD1FE10FF11D80831F5F01E023C08B30F3
:1003F00009F442C08233E9F01430E1F48A3009F59F
:1004000081E98093600086E08093610082E98093B7
:1004100062008FEF809363000E948E000E9475013E
:100420008B30D1F724E043E062E081E00E94BE001F
:1004300023C000E0153028F019821A821B821C822A
:1004400010E08FE097E20197F1F700C0000089818A
:10045000833008F0BCCF6A81653008F0B8CF4B819B
:10046000463008F0B4CF2C812A3008F0B0CF0E947B
:10047000BE000E948E00ABCF80E00F900F900F90D7
:100480000F90DF91CF911F910F91089580B908953A
:1004900084EA86BF06B607FEFDCF089583B984E8D7
:1004A00086BF06B607FEFDCF0895CF93DF93D82F02
:1004B000C62F0E9448028D2F0E944E028C2F0E9450
:1004C0004E0284E986BFDF91CF91089584E986BF0B
:1004D000089584EC86BF06B607FEFDCF83B108956C
:1004E00084E886BF06B607FEFDCF83B108958CE091
:1004F00090E00E9446020E94480280ED0E944E0257
:100500008EE00E944E0280E00E944E020E9466022F
:100510008CE090E00895CF93DF93EC010E944802B5
:1005200080ED0E944E0280E00E944E0288810E946F
:100530004E0289810E944E028A810E944E028B8166
:100540000E944E028C810E944E028D810E944E02BA
:100550008E810E944E02DF91CF910C946602CF9360
:10056000DF93EC010E94480280ED0E944E0280E081
:100570000E944E020E9466020E94480281ED0E9483
:100580004E020E94690288830E94690289830E9448
:1005900069028A830E9469028B830E9469028C83AC
:1005A0000E9469028D830E9470028E83DF91CF9139
:1005B0000C9466026AE00E944B0320E1829F900D3A
:1005C0001124892F0895982F87FF02C09FE0980F6C
:1005D0009595959595959595990F292F220F220F11
:1005E000920F8F7887FF03C08150806F8F5F890FD4
:1005F00008950E9477028FEF8ABB84BB98E791BB76
:1006000082BB9EEC9093600091EA9093610091E927
:100610009093620080936300DAE087E890E00E94A4
:10062000AF02809187000E94E302C82F8091890069
:100630000E94E302809188000E94E302382FCA30B2
:1006400038F08C2F6D2F0E943F03482FC92F01C017
:1006500040E03A3030F0832F6D2F0E943F03392F56
:1006600001C080E02C2F632F0E94BE000E94750104
:100670008A3011F40E94D7010E948E00CECF991BC0
:1006800079E004C0991F961708F0961B881F7A9589
:10069000C9F78095089587FB082E062687FD81956A
:1006A00067FD61950E943F030EF4919507FC8195CB
:1006B0000895EE0FFF1F0590F491E02D0994F89432
:0206C000FFCF6A
:1006C2004079243070B0D0E0C0F9A4B0999282F899
:1006D2008090407924301912027800103F5F6F77C2
:00000001FF
