:100000000C943E000C945B000C945B000C945B0021
:100010000C945B000C945B000C945B000C945B00F4
:100020000C9421080C945B000C945B000C945B0016
:100030000C945B000C945B000C945B000C945B00D4
:100040000C945B000C945B000C945B000C945B00C4
:100050000C945B00A601A801AA01AC01AE01B0019D
:10006000B201B401B601B801C501C701CA01CC0192
:10007000CE01D001D201D401D601D80111241FBE76
:10008000CFE5D4E0DEBFCDBF10E0A0E6B0E0E2EF08
:10009000F3E102C005900D92AE3EB107D9F721E021
:1000A000AEEEB0E001C01D92A931B207E1F70E94A7
:1000B000FD080C94F7090C9400001F93CF93DF9375
:1000C000CDB7DEB727970FB6F894DEBF0FBECDBF12
:1000D000883120F46C3310F4162F02C010E080E059
:1000E0000E94DE088B83812F0E94DE088A838AE0CB
:1000F0000E94DE0889838BE00E94DE088D8388E001
:100100000E94DE088E8383E10E94DE088F8387E0F1
:100110008C83CE0101960E948F0827960FB6F89423
:10012000DEBF0FBECDBFDF91CF911F9108958091AB
:10013000E4009091E500A091E600B091E700809383
:10014000F2008091E4009091E500A091E600B0916A
:10015000E700CC97A105B1056CF08091F0008F5FAE
:100160008093F0001092E4001092E5001092E600F7
:100170001092E7008091F0008C3338F08091F1000C
:100180008F5F8093F1001092F0008091F100883130
:1001900010F01092F100089592E083B38F708068A0
:1001A00085BB8091C8008BBBE7EEF3E03197F1F798
:1001B00000C0000083B38F70806485BB8091C9004C
:1001C0008BBBE7EEF3E03197F1F700C0000083B39B
:1001D0008F70806285BB8091CA008BBBE7EEF3E035
:1001E0003197F1F700C0000083B38F70806185BB49
:1001F0008091CB008BBBE7EEF3E03197F1F700C0C5
:100200000000915051F608959AE05FEF41E936E021
:1002100022E983B38F7085BB5BBBE7EEF3E03197D8
:10022000F1F700C0000083B38F70806485BB4BBBC7
:10023000E7EEF3E03197F1F700C0000083B38F7071
:10024000806285BB3BBBE7EEF3E03197F1F700C07E
:10025000000083B38F70806185BB2BBBE7EEF3E0BA
:100260003197F1F700C00000915099F608952F9250
:100270003F924F925F926F927F928F929F92AF9236
:10028000BF92CF92DF92EF92FF920F931F93CF9383
:10029000DF93CDB7DEB72B970FB6F894DEBF0FBE56
:1002A000CDBF89836A834B832C83D090DA00B090D2
:1002B000E3009090E2008090E1007090E000609098
:1002C000DF005090DE004090DD003090DC00209098
:1002D000DB004091D0004D838091D1008E8340910E
:1002E000D2004F838091D30088874091D400498702
:1002F0008091D5008A874091D6004B879091D70096
:100300001091D800F090D900A8ECB0E09E012F5FCA
:100310003F4F80E0811103C001110DC02BC081301F
:1003200019F4E11008C026C0823019F4C11003C0CE
:1003300021C0AA20F9F0F901408150E04A3051056E
:10034000C0F5FA01E65DFF4F0C94F109DC9231C073
:100350002C922FC03C922DC04C922BC05C9229C095
:100360006C9227C07C9225C08C9223C09C9221C0A5
:10037000BC921FC0F901408150E04A305105C8F4D9
:10038000FA01EC5CFF4F0C94F1094D8101C04E81E4
:100390004C930FC04F81FCCF4885FACF4985F8CFE9
:1003A0004A85F6CF4B85F4CF9C9303C01C9301C0C4
:1003B000FC928F5F11962F5F3F4F843009F0AACFD8
:1003C0002B960FB6F894DEBF0FBECDBFDF91CF9155
:1003D0001F910F91FF90EF90DF90CF90BF90AF9063
:1003E0009F908F907F906F905F904F903F902F9055
:1003F0000895E8ECF0E080836183428323830895CD
:10040000CF92DF92EF92FF920F931F93CF93DF93E0
:10041000DC016B01E7018091F2008A3038F06AE07C
:100420000E94D709F8018083988303C0F8011082E5
:1004300088838091F0008A3040F06AE00E94D709FA
:10044000FA018083F901908304C0FA011082F90156
:1004500080838091F1008A3038F06AE00E94D709E9
:100460008C93F601908303C01C92F6018083DF9188
:10047000CF911F910F91FF90EF90DF90CF90089553
:10048000DF92EF92FF920F931F93CF93DF93D62EBD
:10049000E801D7018A3040F06AE00E94D709FA01EA
:1004A0008083F901908304C0FA011082F9018083EE
:1004B000F9E0FD1538F48D2D6AE00E94D709888394
:1004C0009C9302C01882DC92DF91CF911F910F9113
:1004D000FF90EF90DF900895CF93DF9300D000D08E
:1004E000CDB7DEB78091E9009091EA00A091EB00D2
:1004F000B091EC0089839A83AB83BC83FE01319673
:100500009E012B5F3F4F819182BB87EE93E0019765
:10051000F1F700C0000080B38F778F3789F18E35F7
:1005200039F178F48E3301F130F48B33D9F08D3317
:1005300039F582E02CC08B35C9F08D3509F585E0A1
:1005400026C08E36C9F030F48B36A1F08D36C1F45A
:1005500088E01DC08537D1F0863781F0833781F47C
:100560008AE015C081E013C083E011C084E00FC0B1
:1005700086E00DC087E00BC089E009C08BE007C0B2
:10058000E217F30709F0BFCF82E301C080E00F90CC
:100590000F900F900F90DF91CF9108950E946C0201
:1005A00087708730D9F708950E946C028A3029F04D
:1005B0008B3029F00E94CC00F7CF81E0089580E0D5
:1005C00008952F923F924F925F926F927F928F92F7
:1005D0009F92AF92CF92EF92FF920F931F93CF9380
:1005E000DF9300D000D0CDB7DEB74C013B012A012C
:1005F000190119821A821B821C82F12C10E00E94C0
:100600006C028A3068F4F1100FC0E1E0F0E0EC0F0A
:10061000FD1FE10FF11D80831F5FFF24F3941AC0BB
:100620008B3099F18233A9F01430A1F48A30C9F4E7
:100630000E946C028B30E1F78981F40180838A810A
:10064000F30180838B81F20180838C81F1018083AF
:100650001CC0F12C153028F019821A821B821C82D2
:1006600010E08FE097E20197F1F700C00000A12CA5
:10067000C12CEE24E39400E02C814B816A818981B6
:100680000E9437010E94CC00BACF80E00F900F90FB
:100690000F900F90DF91CF911F910F91FF90EF90EE
:1006A000CF90AF909F908F907F906F905F904F9082
:1006B0003F902F900895CF93DF9300D000D0CDB717
:1006C000DEB79E012F5F3F4FAE014E5F5F4FBE0111
:1006D0006D5F7F4FCE0104960E94E1029C819330B2
:1006E00020F58B81843020F09230F9F08A30E8F4E4
:1006F0008A818630D0F489818A30B8F40E9404015E
:100700000E946C028B3019F00E94CC00F7CF8A81D6
:1007100069812AE0829F600D11249C818B812AE0EF
:10072000929F800D11240E945D000F900F900F90FA
:100730000F90DF91CF910895AF92CF92EF920F93E8
:10074000A12CC12CE12C00E021E040E060E089E038
:100750000E9437010E946C028A3029F08B3039F0F8
:100760000E94CC00F7CF81E08093EE0002C010928F
:10077000EE0080E00F91EF90CF90AF900895E19957
:10078000FECF90E09FBB8EBB6DBBE29AE19A0895CD
:10079000E199FECF90E09FBB8EBBE09A8DB30895A8
:1007A000EF92FF920F931F93CF93DF93C2ECD0E0B1
:1007B0000BE810E089910E94C803F80181938F0132
:1007C000F0E0C83CDF07B1F7CBEBD0E005E810E084
:1007D00089910E94C803F80181938F01F0E0C13C28
:1007E000DF07B1F7C4EBD0E00FE710E089910E947A
:1007F000C803F80181938F01F0E0CA3BDF07B1F72E
:10080000CDEAD0E009E710E089910E94C803F80121
:1008100081938F01F0E0C33BDF07B1F7C6EAD0E078
:1008200003E710E089910E94C803F80181938F01CA
:10083000F0E0CC3ADF07B1F7CFE9D0E00DE610E009
:1008400025EAE22E20E0F22E89910E94C803F801E9
:1008500081938F01EC16FD06B9F7C8E9D0E007E6F1
:1008600010E09EE9E92E90E0F92E89910E94C803DC
:10087000F80181938F01EC16FD06B9F7C1E9D0E0CC
:1008800001E610E087E9E82E80E0F82E89910E94C9
:10089000C803F80181938F01EC16FD06B9F7DF91CB
:1008A000CF911F910F91FF90EF900895EF92FF92DB
:1008B0000F931F93CF93DF93D801F7018130B1F4E9
:1008C00070E0EB01C657DF4F8881EA018883EB01B6
:1008D000CC57DF4F8881E9018883EB01C258DF4F95
:1008E00088818C93DB01A858BF4F17C08230B9F4C0
:1008F00070E0EB01CE58DF4F8881EA018883EB017D
:10090000C459DF4F8881E9018883EB01CA59DF4F61
:1009100088818C93DB01A05ABF4F8C918083DF913B
:10092000CF911F910F91FF90EF900895DF92EF927A
:10093000FF920F931F93CF93DF93CDB7DEB7289726
:100940000FB6F894DEBF0FBECDBF182F062F86E876
:100950008093C8008FEB8093C90080EC8093CA001D
:100960008BEA8093CB000E94CC000E946C028A30FC
:10097000D1F79E012B5F3F4FAE014A5F5F4FBE0133
:10098000695F7F4FCE0108960E94E10286E880935E
:10099000C8008FEB8093C90080EC8093CA008EE87A
:1009A0008093CB000E94CC000E946C028A30D1F769
:1009B0009E012F5F3F4FAE014E5F5F4FBE016D5FE7
:1009C0007F4FCE0104960E94E1029885933008F093
:1009D00082C08F81843030F0923009F47CC08A303C
:1009E00008F079C08E81863008F075C08D818A301C
:1009F00008F071C09C81933008F06DC08B81843009
:100A000030F0923009F467C08A3008F064C08A81FF
:100A1000863008F060C089818A3008F05CC00E948E
:100A200004010E946C028B3019F00E94CC00F7CFB9
:100A300088856F819AE0899F600D11248E81FD80E9
:100A40009AE0899FF00C11248C81DB809AE0899FC9
:100A5000D00C11248A81E9809AE0899FE00C11244E
:100A60001130C9F410E0F801EF53FF4F80810E946C
:100A7000BF03F801E654FF4F6F2D80810E94BF0332
:100A8000F801ED54FF4F6D2D80810E94BF03F801E6
:100A9000E455FF4F1AC01230F1F410E0F801EB55A5
:100AA000FF4F80810E94BF03F801E256FF4F6F2D78
:100AB00080810E94BF03F801E956FF4F6D2D8081B0
:100AC0000E94BF03F801E057FF4F6E2D80810E9406
:100AD000BF030E94D00328960FB6F894DEBF0FBE66
:100AE000CDBFDF91CF911F910F91FF90EF90DF90DD
:100AF00008955F926F927F928F929F92AF92BF9272
:100B0000CF92DF92EF92FF920F931F93CF93DF93D9
:100B100000D000D0CDB7DEB7982ED62E842E722E00
:100B2000602E5E2CBB24B394CE0101967C018E0115
:100B30000E5F1F4F9E012D5F3F4FAE014C5F5F4F19
:100B4000BB2031F0672D882D0E944002A12C06C0E9
:100B5000652D862D0E944002AA24A394C12CEE2468
:100B6000E39400E029814A816B818C810E943701E6
:100B70000E946C028A3061F481E0B8269FE72AE186
:100B800086E0915020408040E1F700C000004EC058
:100B90008B3009F44EC0811142C091E099121BC004
:100BA0000D2D10E0F801EF53FF4F68E580810E94A2
:100BB000BF03F801E654FF4F68E580810E94BF0340
:100BC000F801ED54FF4F68E580810E94BF03F801F2
:100BD000E455FF4F1DC022E092122BC00D2D10E0F6
:100BE000F801EB55FF4F68E580810E94BF03F801D3
:100BF000E256FF4F68E580810E94BF03F801E95685
:100C0000FF4F68E580810E94BF03F801E057FF4F66
:100C100068E580810E94BF030E94D0030AC089302A
:100C200029F46D2D892D0E94960403C00E94CC00EA
:100C30007BCF0F900F900F900F90DF91CF911F916E
:100C40000F91FF90EF90DF90CF90BF90AF909F906B
:100C50008F907F906F905F900895AF92CF92DF92C8
:100C6000EF92FF920F931F93CF93DF9300D000D0AA
:100C7000CDB7DEB7A12CC12CE12C00E021E040E093
:100C800061E089E00E9437010E946C028A3029F0FD
:100C90008B3029F00E94CC00F7CF11E001C010E0AA
:100CA000A12CC12CE12C00E022E040E061E089E0D1
:100CB0000E943701112359F00E946C02813049F0E3
:100CC000823051F08B3019F00E94CC00F5CFD12C3E
:100CD00005C0DD24D39402C092E0D92E8FEF8D0D94
:100CE000823008F0C1C081E0D812B3C080EC80939C
:100CF000C8008CE88093C9008FEB8093CA0089EF0D
:100D00008093CB000E94D402811103C00E94CC00CA
:100D1000F9CF8FEBC82E0E946C02CBBA833009F456
:100D200050C0D8F48130B9F1823009F08FC0CE01C3
:100D300001967C018E010E5F1F4F9E012D5F3F4F7C
:100D4000AE014C5F5F4F62E08D2D0E945604E9803A
:100D50000A812B814C8162E075C0853009F45DC049
:100D600008F445C0863009F071C0CE0101967C01BF
:100D70008E010E5F1F4F9E012D5F3F4FAE014C5FF6
:100D80005F4F66E08D2D0E945604E9800A812B8119
:100D90004C8166E057C0CE0101967C018E010E5F4A
:100DA0001F4F9E012D5F3F4FAE014C5F5F4F61E0D3
:100DB0008D2D0E945604E9800A812B814C8161E0CF
:100DC00041C0CE0101967C018E010E5F1F4F9E0136
:100DD0002D5F3F4FAE014C5F5F4F63E08D2D0E9452
:100DE0005604E9800A812B814C8163E02BC0CE013F
:100DF00001967C018E010E5F1F4F9E012D5F3F4FBC
:100E0000AE014C5F5F4F64E08D2D0E945604E98077
:100E10000A812B814C8164E015C0CE0101967C01D2
:100E20008E010E5F1F4F9E012D5F3F4FAE014C5F45
:100E30005F4F65E08D2D0E945604E9800A812B8169
:100E40004C8165E08D2D0E94790565CF882361F086
:100E500062CF80EC8093C8008CE88093C9008FEB50
:100E60008093CA0084EA4CCF0F900F900F900F90A0
:100E7000DF91CF911F910F91FF90EF90DF90CF9076
:100E8000AF9008950F931F93CF93DF930AE810E07C
:100E90004EE750E0A8E7B0E0E4E8F0E030E0E80139
:100EA00089918E01EA019991AE01891730F520915F
:100EB000F100281710F1921700F1821312C060811F
:100EC0002091F000261720F183B3877F85BB42E78E
:100ED00050E006E610E0E0E6F0E0ACE6B0E030E03E
:100EE0005AC0921306C06C912091F000621728F04E
:100EF000EBCF821710F4291738F389130BC08091B8
:100F0000F0009081891728F19C91891710F5DCCFAA
:100F1000891749F39817E8F42091F100281710F089
:100F2000283110F09217A8F0821306C090818091AA
:100F3000F000891770F0C8CF921306C09C91809181
:100F4000F000981730F0C0CF821718F4291708F472
:100F5000BBCF353019F483B3886085BB3F5F1196F2
:100F60003196363009F09BCFB2CF2091F10028178F
:100F7000D8F4891336C08091F0009C91891758F5F8
:100F8000353019F483B3846085BB3F5F3196119689
:100F9000363009F44BC0EA018991AE01E80199911C
:100FA0008E01891730F7E1CF921718F3821306C02C
:100FB0006C912091F000261790F035C0921306C076
:100FC00060812091F0006217A0F22DC0821788F690
:100FD000291778F628C09081891790F624C08917C0
:100FE00079F3981768F62091F100281710F028314E
:100FF00010F0921728F2821307C09C918091F000A4
:10100000891708F4BDCF0FC0921307C0908180915B
:10101000F000981708F4B4CF06C0821708F0B0CFDC
:10102000291708F0ADCF83B38B7F85BBDF91CF91BC
:101030001F910F9108951FBC85E08EBD84E089BF8C
:1010400008951F920F920FB60F9211248F939F93C2
:10105000AF93BF938DEB90EF9DBD8CBD8091E4006D
:101060009091E500A091E600B091E7000196A11DE6
:10107000B11D8093E4009093E500A093E600B09347
:10108000E700BF91AF919F918F910F900FBE0F908E
:101090001F90189580B9089584EA86BF06B607FEAA
:1010A000FDCF089583B984E886BF06B607FEFDCF5D
:1010B0000895CF93DF93D82FC62F0E944C088D2F11
:1010C0000E9452088C2F0E94520884E986BFDF914B
:1010D000CF91089584E986BF089584EC86BF06B653
:1010E00007FEFDCF83B1089584E886BF06B607FEEC
:1010F000FDCF83B108958CE090E00E944A080E94E1
:101100004C0880ED0E9452088EE00E94520880E058
:101110000E9452080E946A088CE090E00895CF93E4
:10112000DF93EC010E944C0880ED0E94520880E0A1
:101130000E94520888810E94520889810E945208A8
:101140008A810E9452088B810E9452088C810E94E1
:1011500052088D810E9452088E810E945208DF91B0
:10116000CF910C946A08CF93DF93EC010E944C0856
:1011700080ED0E94520880E00E9452080E946A0896
:101180000E944C0881ED0E9452080E946D088883DD
:101190000E946D0889830E946D088A830E946D08F1
:1011A0008B830E946D088C830E946D088D830E9442
:1011B00074088E83DF91CF910C946A086AE00E94D4
:1011C000E30920E1829F900D1124892F0895982F23
:1011D00087FF02C09FE0980F9595959595959595F9
:1011E000990F292F220F220F920F8F7887FF03C0AC
:1011F0008150806F8F5F890F0895CF93DF9300D068
:1012000000D000D0CDB7DEB70E94D0038FEF8ABBED
:1012100084BB98E791BB82BB8CEF85BB8FEB8BBB0C
:101220000E941B080E946C028530C1F4A12CC12CC5
:10123000EE24E39400E025E045E065E00E943701FC
:101240000E94CC000E946C028A3021F41092E800C7
:10125000789404C00E946C028B3091F78091E80072
:1012600081110E947B088CE3D82E1E821D821C8275
:101270001B821A8219828091E8008823B9F08CE0E1
:1012800091E00E94B30880910C010E94E7088093CE
:10129000F20080910E010E94E7088093F100809196
:1012A0000D010E94E7088093F00002C00E949700A1
:1012B000CE0101967C018E010E5F1F4F9E012D5FB6
:1012C0003F4FAE014C5F5F4FBE016B5F7F4F059696
:1012D0000E9400028091EE008823E9F08091EF00E7
:1012E000882359F0AA24A394C12CEE24E39400E0AF
:1012F00029814A816B818C8109C0A12CC12CEE24EB
:10130000E39400E02B814C816D818E810E94370136
:101310000E94CC000DC0A12CC12CE12C00E020E0EB
:1013200040E060E080E00E94370183B38F7085BBAE
:101330000E946C028A30B1F48091E80081110FC0E4
:101340001092E4001092E5001092E6001092E7007F
:101350001092F2001092F0001092F1001EC00E9454
:101360005B031BC08B3081F49091EF0081E08927F3
:101370008093EF009FE72AE186E091502040804073
:10138000E1F700C0000009C0813019F40E949C03FD
:1013900004C0811102C00E942D068091F000D81671
:1013A00021F00E9442078091F000D82E5ECF991B59
:1013B00079E004C0991F961708F0961B881F7A954C
:1013C000C9F78095089587FB082E062687FD81952D
:1013D00067FD61950E94D7090EF4919507FC8195F0
:1013E0000895EE0FFF1F0590F491E02D0994F894F5
:0213F000FFCF2D
:1013F2003D3D3D3D3D3D1919191919193C3C3C3CF7
:101402003C3C1818181818183D3D3D3D3D3D191932
:10141200191919193C3C3C3C3C3C1818181818186E
:10142200343435363738392E2E2F3031323328289E
:10143200292A2B2C2D222223242526271C1C1D1E63
:101442001F202116161718191A1B10101112131427
:10145200150A0A0B0C0D0E0F4079243070B0D0E043
:10146200C0F9A4B0999282F8809040792430191280
:0E1472000278001003000000013F5F6F77005A
:00000001FF
