:100000000C943E000C945B000C945B000C945B0021
:100010000C945B000C945B000C945B000C945B00F4
:100020000C945B000C945B000C945B000C945B00E4
:100030000C945B000C945B000C945B000C945B00D4
:100040000C945B000C945B000C945B000C945B00C4
:100050000C945B00710173017501770179017B01DB
:100060007D017F018101830190019201950197013A
:1000700099019B019D019F01A101A30111241FBEB4
:10008000CFE5D4E0DEBFCDBF10E0A0E6B0E0E8ED04
:10009000F2E102C005900D92A83EB107D9F721E028
:1000A000A8EEB0E001C01D92A331B207E1F70E94B3
:1000B000B9080C946A090C9400001F93CF93DF9346
:1000C000CDB7DEB727970FB6F894DEBF0FBECDBF12
:1000D000883120F46C3310F4162F02C010E080E059
:1000E0000E949A088B83812F0E949A088A838AE053
:1000F0000E949A0889838BE00E949A088D8388E089
:100100000E949A088E8383E10E949A088F8387E079
:100110008C83CE0101960E944B0827960FB6F89467
:10012000DEBF0FBECDBFDF91CF911F91089592E04A
:1001300083B38F70806885BB8091C8008BBBE7EE6E
:10014000F3E03197F1F700C0000083B38F70806453
:1001500085BB8091C9008BBBE7EEF3E03197F1F7E7
:1001600000C0000083B38F70806285BB8091CA009D
:100170008BBBE7EEF3E03197F1F700C0000083B3EB
:100180008F70806185BB8091CB008BBBE7EEF3E085
:100190003197F1F700C00000915051F608959AE0B0
:1001A0005FEF41E936E022E983B38F7085BB5BBB2B
:1001B000E7EEF3E03197F1F700C0000083B38F70F2
:1001C000806485BB4BBBE7EEF3E03197F1F700C0ED
:1001D000000083B38F70806285BB3BBBE7EEF3E02A
:1001E0003197F1F700C0000083B38F70806185BB49
:1001F0002BBBE7EEF3E03197F1F700C00000915020
:1002000099F608952F923F924F925F926F927F924C
:100210008F929F92AF92BF92CF92DF92EF92FF9216
:100220000F931F93CF93DF93CDB7DEB72B970FB606
:10023000F894DEBF0FBECDBF89836A834B832C83C6
:10024000D090DA00B090E3009090E2008090E1005E
:100250007090E0006090DF005090DE004090DD0084
:100260003090DC002090DB004091D0004D838091E5
:10027000D1008E834091D2004F838091D300888734
:100280004091D40049878091D5008A874091D6005B
:100290004B879091D7001091D800F090D900A8EC2E
:1002A000B0E09E012F5F3F4F80E0811103C001113C
:1002B0000DC02BC0813019F4E11008C026C0823077
:1002C00019F4C11003C021C0AA20F9F0F90140813E
:1002D00050E04A305105C0F5FA01E65DFF4F0C943D
:1002E0006409DC9231C02C922FC03C922DC04C92FC
:1002F0002BC05C9229C06C9227C07C9225C08C9246
:1003000023C09C9221C0BC921FC0F901408150E0E3
:100310004A305105C8F4FA01EC5CFF4F0C946409B3
:100320004D8101C04E814C930FC04F81FCCF488559
:10033000FACF4985F8CF4A85F6CF4B85F4CF9C9309
:1003400003C01C9301C0FC928F5F11962F5F3F4F3B
:10035000843009F0AACF2B960FB6F894DEBF0FBEFB
:10036000CDBFDF91CF911F910F91FF90EF90DF9064
:10037000CF90BF90AF909F908F907F906F905F9045
:100380004F903F902F900895E8ECF0E080836183D8
:10039000428323830895CF92DF92EF92FF920F93CF
:1003A0001F93CF93DF93DC016B01E7018091F20093
:1003B0008A3038F06AE00E944A09F8018083988305
:1003C00003C0F801108288838091F0008A3040F0E9
:1003D0006AE00E944A09FA018083F901908304C00F
:1003E000FA011082F90180838091F1008A3038F09F
:1003F0006AE00E944A098C93F601908303C01C9224
:10040000F6018083DF91CF911F910F91FF90EF90C4
:10041000DF90CF900895DF92EF92FF920F931F939A
:10042000CF93DF93D62EE801D7018A3040F06AE0FF
:100430000E944A09FA018083F901908304C0FA01FD
:100440001082F9018083F9E0FD1538F48D2D6AE002
:100450000E944A0988839C9302C01882DC92DF9133
:10046000CF911F910F91FF90EF90DF900895CF9360
:10047000DF9300D000D0CDB7DEB78091E40090913B
:10048000E500A091E600B091E70089839A83AB83F1
:10049000BC83FE0131969E012B5F3F4F819182BB51
:1004A00087EE93E00197F1F700C0000080B38F77EB
:1004B0008F3789F18E3539F178F48E3301F130F4CC
:1004C0008B33D9F08D3339F582E02CC08B35C9F0F0
:1004D0008D3509F585E026C08E36C9F030F48B36AF
:1004E000A1F08D36C1F488E01DC08537D1F0863784
:1004F00081F0833781F48AE015C081E013C083E086
:1005000011C084E00FC086E00DC087E00BC089E019
:1005100009C08BE007C0E217F30709F0BFCF82E301
:1005200001C080E00F900F900F900F90DF91CF915E
:1005300008950E94370287708730D9F708950E9486
:1005400037028A3029F08B3029F00E949700F7CFCC
:1005500081E0089580E008952F923F924F925F923C
:100560006F927F928F929F92AF92CF92EF92FF9273
:100570000F931F93CF93DF9300D000D0CDB7DEB79A
:100580004C013B012A01190119821A821B821C822B
:10059000F12C10E00E9437028A3068F4F1100FC08D
:1005A000E1E0F0E0EC0FFD1FE10FF11D80831F5F24
:1005B000FF24F3941AC08B3099F18233A9F01430E0
:1005C000A1F48A30C9F40E9437028B30E1F78981A7
:1005D000F40180838A81F30180838B81F20180831F
:1005E0008C81F10180831CC0F12C153028F0198218
:1005F0001A821B821C8210E08FE097E20197F1F7CC
:1006000000C00000A12CC12CEE24E39400E02C815A
:100610004B816A8189810E9402010E949700BACFB2
:1006200080E00F900F900F900F90DF91CF911F916E
:100630000F91FF90EF90CF90AF909F908F907F9011
:100640006F905F904F903F902F900895CF93DF93DE
:1006500000D000D0CDB7DEB79E012F5F3F4FAE0177
:100660004E5F5F4FBE016D5F7F4FCE0104960E94CB
:10067000AC029C81933020F58B81843020F0923045
:10068000F9F08A30E8F48A818630D0F489818A30A2
:10069000B8F40E94CF000E9437028B3019F00E94FC
:1006A0009700F7CF8A8169812AE0829F600D11242B
:1006B0009C818B812AE0929F800D11240E945D0015
:1006C0000F900F900F900F90DF91CF910895AF9200
:1006D000CF92EF920F93A12CC12CE12C00E021E0EE
:1006E00040E060E089E00E9402010E9437028A3007
:1006F00029F08B3039F00E949700F7CF81E080938A
:10070000E80002C01092E80080E00F91EF90CF90D7
:10071000AF900895E199FECF90E09FBB8EBB6DBB7B
:10072000E29AE19A0895E199FECF90E09FBB8EBBDB
:10073000E09A8DB30895EF92FF920F931F93CF939A
:10074000DF93C2ECD0E00BE810E089910E949303A4
:10075000F80181938F01F0E0C83CDF07B1F7CBEBE4
:10076000D0E005E810E089910E949303F80181939D
:100770008F01F0E0C13CDF07B1F7C4EBD0E00FE739
:1007800010E089910E949303F80181938F01F0E0BA
:10079000CA3BDF07B1F7CDEAD0E009E710E0899165
:1007A0000E949303F80181938F01F0E0C33BDF07C0
:1007B000B1F7C6EAD0E003E710E089910E94930305
:1007C000F80181938F01F0E0CC3ADF07B1F7CFE970
:1007D000D0E00DE610E025EAE22E20E0F22E89912D
:1007E0000E949303F80181938F01EC16FD06B9F77F
:1007F000C8E9D0E007E610E09EE9E92E90E0F92E86
:1008000089910E949303F80181938F01EC16FD06F4
:10081000B9F7C1E9D0E001E610E087E9E82E80E011
:10082000F82E89910E949303F80181938F01EC16B1
:10083000FD06B9F7DF91CF911F910F91FF90EF90D7
:100840000895EF92FF920F931F93CF93DF93D801F8
:10085000F7018130B1F470E0EB01C657DF4F8881BA
:10086000EA018883EB01CC57DF4F8881E901888357
:10087000EB01C258DF4F88818C93DB01A858BF4F32
:1008800017C08230B9F470E0EB01CE58DF4F888199
:10089000EA018883EB01C459DF4F8881E90188832D
:1008A000EB01CA59DF4F88818C93DB01A05ABF4FFF
:1008B0008C918083DF91CF911F910F91FF90EF90EA
:1008C0000895DF92EF92FF920F931F93CF93DF93E0
:1008D000CDB7DEB728970FB6F894DEBF0FBECDBFF9
:1008E000182F062F86E88093C8008FEB8093C900ED
:1008F00080EC8093CA008BEA8093CB000E94970023
:100900000E9437028A30D1F79E012B5F3F4FAE0124
:100910004A5F5F4FBE01695F7F4FCE0108960E941C
:10092000AC0286E88093C8008FEB8093C90080EC0E
:100930008093CA008EE88093CB000E9497000E94AB
:1009400037028A30D1F79E012F5F3F4FAE014E5FD5
:100950005F4FBE016D5F7F4FCE0104960E94AC02D7
:100960009885933008F082C08F81843030F09230C7
:1009700009F47CC08A3008F079C08E81863008F096
:1009800075C08D818A3008F071C09C81933008F069
:100990006DC08B81843030F0923009F467C08A30AA
:1009A00008F064C08A81863008F060C089818A308E
:1009B00008F05CC00E94CF000E9437028B3019F013
:1009C0000E949700F7CF88856F819AE0899F600D1C
:1009D00011248E81FD809AE0899FF00C11248C8176
:1009E000DB809AE0899FD00C11248A81E9809AE00B
:1009F000899FE00C11241130C9F410E0F801EF5385
:100A0000FF4F80810E948A03F801E654FF4F6F2D4B
:100A100080810E948A03F801ED54FF4F6D2D808183
:100A20000E948A03F801E455FF4F1AC01230F1F416
:100A300010E0F801EB55FF4F80810E948A03F80116
:100A4000E256FF4F6F2D80810E948A03F801E9561C
:100A5000FF4F6D2D80810E948A03F801E057FF4F00
:100A60006E2D80810E948A030E949B0328960FB6F8
:100A7000F894DEBF0FBECDBFDF91CF911F910F91D4
:100A8000FF90EF90DF9008955F926F927F928F9228
:100A90009F92AF92BF92CF92DF92EF92FF920F930D
:100AA0001F93CF93DF9300D000D0CDB7DEB7982E41
:100AB000D62E842E722E602E5E2CBB24B394CE01D3
:100AC00001967C018E010E5F1F4F9E012D5F3F4FEF
:100AD000AE014C5F5F4FBB2039F0672D882D0E941F
:100AE0000B02AA24A39405C0652D862D0E940B023B
:100AF000A12CC12CEE24E39400E029814A816B8172
:100B00008C810E9402010E9437028A3019F481E030
:100B1000B8264EC08B3009F44EC0811142C091E01E
:100B200099121BC00D2D10E0F801EF53FF4F68E53F
:100B300080810E948A03F801E654FF4F68E58081B6
:100B40000E948A03F801ED54FF4F68E580810E94FE
:100B50008A03F801E455FF4F1DC082E098122BC0B4
:100B60000D2D10E0F801EB55FF4F68E580810E94E4
:100B70008A03F801E256FF4F68E580810E948A03EC
:100B8000F801E956FF4F68E580810E948A03F80169
:100B9000E057FF4F68E580810E948A030E949B0313
:100BA0000AC0893029F46D2D892D0E94610403C08B
:100BB0000E94970084CF0F900F900F900F90DF91BD
:100BC000CF911F910F91FF90EF90DF90CF90BF904A
:100BD000AF909F908F907F906F905F900895AF92AD
:100BE000CF92DF92EF92FF920F931F93CF93DF93F9
:100BF00000D000D0CDB7DEB7A12CC12CE12C00E095
:100C000021E040E061E089E00E9402010E94370299
:100C10008A3029F08B3029F00E949700F7CF11E03D
:100C200001C010E0A12CC12CE12C00E022E040E04A
:100C300061E089E00E940201112359F00E9437020D
:100C4000813049F0823051F08B3019F00E949700CA
:100C5000F5CFD12C05C0DD24D39402C092E0D92E6B
:100C60008FEF8D0D823008F0C1C081E0D812B3C083
:100C700080EC8093C8008CE88093C9008FEB809350
:100C8000CA0089EF8093CB000E949F02811103C0AC
:100C90000E949700F9CF8FEBC82E0E943702CBBA83
:100CA000833009F450C0D8F48130B9F1823009F0B2
:100CB0008FC0CE0101967C018E010E5F1F4F9E01F9
:100CC0002D5F3F4FAE014C5F5F4F62E08D2D0E9464
:100CD0002104E9800A812B814C8162E075C0853056
:100CE00009F45DC008F445C0863009F071C0CE013A
:100CF00001967C018E010E5F1F4F9E012D5F3F4FBD
:100D0000AE014C5F5F4F66E08D2D0E942104E980AB
:100D10000A812B814C8166E057C0CE0101967C018F
:100D20008E010E5F1F4F9E012D5F3F4FAE014C5F46
:100D30005F4F61E08D2D0E942104E9800A812B81A3
:100D40004C8161E041C0CE0101967C018E010E5FB5
:100D50001F4F9E012D5F3F4FAE014C5F5F4F63E021
:100D60008D2D0E942104E9800A812B814C8163E052
:100D70002BC0CE0101967C018E010E5F1F4F9E019C
:100D80002D5F3F4FAE014C5F5F4F64E08D2D0E94A1
:100D90002104E9800A812B814C8164E015C0CE01D9
:100DA00001967C018E010E5F1F4F9E012D5F3F4F0C
:100DB000AE014C5F5F4F65E08D2D0E942104E980FC
:100DC0000A812B814C8165E08D2D0E94440565CF01
:100DD000882361F062CF80EC8093C8008CE8809318
:100DE000C9008FEB8093CA0084EA4CCF0F900F901C
:100DF0000F900F90DF91CF911F910F91FF90EF9087
:100E0000DF90CF90AF900895EF92FF920F931F93D2
:100E1000CF93DF934EE750E0C8E7D0E004E810E05E
:100E20008AE890E0FA01DC013C9160813617F0F429
:100E30002091F1002317D0F06217C0F0321309C0DF
:100E4000D8013C912091F000321303C023B3277FD7
:100E500025BB30812091F100321308C038812091E8
:100E6000F000321303C023B3286025BBDC012C91B2
:100E7000308123131AC03091F100231309C0D80127
:100E80003C912091F000321303C023B3277F25BB90
:100E900030812091F100321308C038812091F00098
:100EA000321303C023B3286025BBDC013D91CD0183
:100EB00060816317F0F42091F100231710F462179A
:100EC000C0F0321309C0D8013C912091F0003213D8
:100ED00003C023B3277F25BB30812091F10032135B
:100EE00008C038812091F000321303C023B328607A
:100EF00025BB319621960F5F1F4FB0E0E438FB070A
:100F000009F091CFE6E6F0E0C0E6D0E08CE6E82E0E
:100F100080E0F82E82E790E06CE670E0DC013C9126
:100F200010813117F0F42091F1002317D0F012173F
:100F3000C0F0321309C0D7013C912091F000321368
:100F400003C023B32F7E25BB30812091F1003213E3
:100F500008C038812091F000321303C023B3206110
:100F600025BBDC012C91DA013D91AD0123131AC0A0
:100F70003091F100231309C0D7013C912091F0007A
:100F8000321303C023B32F7E25BB30812091F100A3
:100F9000321308C038812091F000321303C023B30C
:100FA000206125BBDC013D91CD0110811317F0F4C8
:100FB0002091F100231710F41217C0F0321309C06A
:100FC000D7013C912091F000321303C023B32F7E50
:100FD00025BB30812091F100321308C03881209167
:100FE000F000321303C023B3206125BB3196219654
:100FF000BFEFEB1AFB0A6E177F0709F08FCFDF9167
:10100000CF911F910F91FF90EF90089580B90895AF
:1010100084EA86BF06B607FEFDCF089583B984E84B
:1010200086BF06B607FEFDCF0895CF93DF93D82F76
:10103000C62F0E9408088D2F0E940E088C2F0E9438
:101040000E0884E986BFDF91CF91089584E986BFB9
:10105000089584EC86BF06B607FEFDCF83B10895E0
:1010600084E886BF06B607FEFDCF83B108958CE005
:1010700090E00E9406080E94080880ED0E940E0879
:101080008EE00E940E0880E00E940E080E94260852
:101090008CE090E00895CF93DF93EC010E94080864
:1010A00080ED0E940E0880E00E940E0888810E9458
:1010B0000E0889810E940E088A810E940E088B8189
:1010C0000E940E088C810E940E088D810E940E08DD
:1010D0008E810E940E08DF91CF910C942608CF9349
:1010E000DF93EC010E94080880ED0E940E0880E06A
:1010F0000E940E080E9426080E94080881ED0E94A6
:101100000E080E94290888830E94290889830E946A
:1011100029088A830E9429088B830E9429088C83CE
:101120000E9429088D830E9430088E83DF91CF9121
:101130000C9426086AE00E94560920E1829F900DD7
:101140001124892F0895982F87FF02C09FE0980FE0
:101150009595959595959595990F292F220F220F85
:10116000920F8F7887FF03C08150806F8F5F890F48
:101170000895CF93DF9300D000D000D0CDB7DEB775
:101180000E949B031FEF1ABB14BB88E781BB12BBF5
:101190008CEF85BB8FEB8BBB0E9437088EEC809366
:1011A000C80081EA8093C90081E98093CA00109346
:1011B000CB0086E091E00E946F08809106010E94BA
:1011C000A3088093F200809108010E94A3088093F5
:1011D000F100809107010E94A3088093F0001E8215
:1011E0001D821C821B821A821982CE0101967C010B
:1011F0008E010E5F1F4F9E012D5F3F4FAE014C5F72
:101200005F4FBE016B5F7F4F05960E94CB018091BF
:10121000E900A12CC12CEE24E39400E0882329F0FE
:1012200029814A816B818C8104C02B814C816D8125
:101230008E810E9402010E9437028A3019F40E94B6
:1012400026031BC08B3081F49091E90081E089274F
:101250008093E9009FE728E381E09150204080409F
:10126000E1F700C0000009C0813019F40E94670353
:1012700004C0811102C00E94EF058091E80088231C
:1012800019F00E94970003C083B38F7085BB0E9442
:1012900004078FCF991B79E004C0991F961708F0B7
:1012A000961B881F7A95C9F78095089587FB082EAD
:1012B000062687FD819567FD61950E944A090EF417
:1012C000919507FC81950895EE0FFF1F0590F4910D
:0812D000E02D0994F894FFCF12
:1012D8003D3D3D3D3D3D1919191919193C3C3C3C12
:1012E8003C3C1818181818183D3D3D3D3D3D19194E
:1012F800191919193C3C3C3C3C3C1818181818188A
:10130800343435363738392E2E2F303132332828B9
:10131800292A2B2C2D222223242526271C1C1D1E7E
:101328001F202116161718191A1B10101112131442
:10133800150A0A0B0C0D0E0F4079243070B0D0E05E
:10134800C0F9A4B0999282F880904079243019129B
:08135800027800103F5F6F777F
:00000001FF
