:100000000C943E000C945B000C945B000C945B0021
:100010000C945B000C945B000C945B000C945B00F4
:100020000C945B000C945B000C945B000C945B00E4
:100030000C945B000C945B000C945B000C945B00D4
:100040000C945B000C945B000C945B000C945B00C4
:100050000C945B0061016301660169016C016E0132
:1000600070017201740176018501870189018B019C
:100070008D018F01910193019501970111241FBEFC
:10008000CFE5D4E0DEBFCDBF10E0A0E6B0E0E0E514
:10009000F8E002C005900D92A038B107D9F720E032
:1000A000A0E8B0E001C01D92A239B207E1F70E94BA
:1000B00083030C9426040C9400001F93CF93DF93CA
:1000C000CDB7DEB727970FB6F894DEBF0FBECDBF12
:1000D000883120F46C3310F4162F02C010E080E059
:1000E0000E9464038B83812F0E9464038A838AE0C9
:1000F0000E94640389838BE00E9464038D8388E0FF
:100100000E9464038E8383E10E9464038F8387E0EF
:100110008C83CE0101960E94150327960FB6F894A2
:10012000DEBF0FBECDBFDF91CF911F91089592E04A
:1001300083B38F70806885BB809160008BBBE7EED6
:10014000F3E03197F1F700C0000083B38F70806453
:1001500085BB809161008BBBE7EEF3E03197F1F74F
:1001600000C0000083B38F70806285BB8091620005
:100170008BBBE7EEF3E03197F1F700C0000083B3EB
:100180008F70806185BB809163008BBBE7EEF3E0ED
:100190003197F1F700C00000915051F608959AE0B0
:1001A0005FEF41E936E022E983B38F7085BB5BBB2B
:1001B000E7EEF3E03197F1F700C0000083B38F70F2
:1001C000806485BB4BBBE7EEF3E03197F1F700C0ED
:1001D000000083B38F70806285BB3BBBE7EEF3E02A
:1001E0003197F1F700C0000083B38F70806185BB49
:1001F0002BBBE7EEF3E03197F1F700C00000915020
:1002000099F608952F923F924F925F926F927F924C
:100210008F929F92AF92BF92CF92DF92EF92FF9216
:100220000F931F93CF93DF93CDB7DEB72B970FB606
:10023000F894DEBF0FBECDBF89836A834B832C83C6
:10024000209172002D8330917B003E8340917A0093
:100250004F83809179008887209178002987309199
:1002600077003A87409176004B8790917500D09047
:100270007400C0907300B0906800A09069009090E6
:100280006A0080906B0070906C0060906D005090E0
:100290006E0040906F003090700020907100FE0161
:1002A00031967F01A0E6B0E080E0062F10E08130BB
:1002B00009F50A301105E0F5F801E65DFF4F0C94F1
:1002C00020044D8114C0C092610032C0D092610000
:1002D0002FC0909361002CC04B8509C04A8507C090
:1002E000498505C0488503C04F8101C04E814093B8
:1002F00061001EC0F701408150E04A305105C0F452
:10030000FA01EC5CFF4F0C942004BC9211C0AC923B
:100310000FC09C920DC08C920BC07C9209C06C9255
:1003200007C05C9205C04C9203C03C9201C02C9265
:100330008F5FFFEFEF1AFF0A1196843009F0B7CFF5
:100340002B960FB6F894DEBF0FBECDBFDF91CF91D5
:100350001F910F91FF90EF90DF90CF90BF90AF90E3
:100360009F908F907F906F905F904F903F902F90D5
:100370000895CF92DF92EF92FF920F931F93CF9346
:10038000DF93DC016B01E701809183008A3038F054
:100390006AE00E940604F8018083988303C0F80194
:1003A00010828883809181008A3040F06AE00E9448
:1003B0000604FA018083F901908304C0FA011082D7
:1003C000F9018083809182008A3038F06AE00E94CF
:1003D00006048C93F601908303C01C92F60180837F
:1003E000DF91CF911F910F91FF90EF90DF90CF9011
:1003F0000895CF93DF9300D000D0CDB7DEB78091C2
:100400007C0090917D00A0917E00B0917F00898357
:100410009A83AB83BC83FE0131969E012B5F3F4FD5
:10042000819182BB87EE93E00197F1F700C0000055
:1004300080B38F778F3789F18E3539F178F48E3329
:1004400001F130F48B33D9F08D3339F582E02CC0D3
:100450008B35C9F08D3509F585E026C08E36C9F09B
:1004600030F48B36A1F08D36C1F488E01DC085379D
:10047000D1F0863781F0833781F48AE015C081E0BE
:1004800013C083E011C084E00FC086E00DC087E098
:100490000BC089E009C08BE007C0E217F30709F041
:1004A000BFCF82E301C080E00F900F900F900F90BC
:1004B000DF91CF9108950F931F93CF93DF9300D0D7
:1004C00000D0CDB7DEB719821A821B821C8200E0F1
:1004D00010E00E94F9018A3060F401110FC0E1E0E0
:1004E000F0E0EC0FFD1FE10FF11D80831F5F01E0C5
:1004F0002AC08B3009F44AC0823321F1143019F537
:100500008A3041F50E94CF000E94F9018B30D1F76B
:100510002981233090F48A81843078F49B8196304D
:1005200060F46C816A3048F43AE0239F800D112416
:100530002AE0929F600D112402C06DE389E10E94C0
:100540005D0024C000E0153028F019821A821B8259
:100550001C8210E08FE097E20197F1F700C00000E5
:100560008981833070F46A81643058F44B8146305D
:1005700040F42C812A3028F40E9402010E94970046
:10058000A8CF19821A821B821C82A2CF80E00F9012
:100590000F900F900F90DF91CF911F910F910895C1
:1005A00080B9089584EA86BF06B607FEFDCF089598
:1005B00083B984E886BF06B607FEFDCF0895CF93C2
:1005C000DF93D82FC62F0E94D2028D2F0E94D8020F
:1005D0008C2F0E94D80284E986BFDF91CF910895C5
:1005E00084E986BF089584EC86BF06B607FEFDCF7A
:1005F00083B1089584E886BF06B607FEFDCF83B1B8
:1006000008958CE090E00E94D0020E94D20280ED1A
:100610000E94D8028EE00E94D80280E00E94D80298
:100620000E94F0028CE090E00895CF93DF93EC01FC
:100630000E94D20280ED0E94D80280E00E94D8027F
:1006400088810E94D80289810E94D8028A810E94F2
:10065000D8028B810E94D8028C810E94D8028D81A1
:100660000E94D8028E810E94D802DF91CF910C9413
:10067000F002CF93DF93EC010E94D20280ED0E9442
:10068000D80280E00E94D8020E94F0020E94D202AA
:1006900081ED0E94D8020E94F30288830E94F30237
:1006A00089830E94F3028A830E94F3028B830E9453
:1006B000F3028C830E94F3028D830E94FA028E83E0
:1006C000DF91CF910C94F0026AE00E94120420E1C5
:1006D000829F900D1124892F0895982F87FF02C0C3
:1006E0009FE0980F9595959595959595990F292F3C
:1006F000220F220F920F8F7887FF03C08150806FE7
:100700008F5F890F0895CF93DF9300D000D000D082
:10071000CDB7DEB70E9401038FEF8ABB84BB98E799
:1007200091BB82BB90EF95BB9EEC9093600091EAE9
:100730009093610091E99093620080936300DD24BF
:10074000D3948BE890E00E94390380918B000E9443
:100750006D038093830080918D000E946D038093D0
:10076000820080918C000E946D03809381001E8224
:100770001D821C821B821A821982CE0101967C0185
:100780008E010E5F1F4F9E012D5F3F4FAE014C5FEC
:100790005F4FBE016B5F7F4F05960E94B90180914C
:1007A0008000882329F029814A816B818C8104C0D3
:1007B0002B814C816D818E810E9402010E94F90182
:1007C0008A3019F40E945B0210C08B3071F4809162
:1007D00080008D25809380009FE728E381E0915081
:1007E00020408040E1F700C000000E949700809107
:1007F0008200853139F480918100853018F483B30B
:10080000877F02C083B3886085BB9BCF991B79E04B
:1008100004C0991F961708F0961B881F7A95C9F790
:100820008095089587FB082E062687FD819567FD34
:1008300061950E9406040EF4919507FC8195089538
:10084000EE0FFF1F0590F491E02D0994F894FFCF6F
:100850004079243070B0D0E0C0F9A4B0999282F809
:100860008090407924301912027800103F5F6F7732
:00000001FF
