:100000000C943E000C945B000C945B000C945B0021
:100010000C945B000C945B000C945B000C945B00F4
:100020000C945B000C945B000C945B000C945B00E4
:100030000C945B000C945B000C945B000C945B00D4
:100040000C945B000C945B000C945B000C945B00C4
:100050000C945B00EC00EE00F100F400F700F900F6
:10006000FB00FD00FF000101100112011401160147
:1000700018011A011C011E012001220111241FBEBA
:10008000CFE5D4E0DEBFCDBF10E0A0E6B0E0ECE30A
:10009000F6E002C005900D92A038B107D9F720E034
:1000A000A0E8B0E001C01D92AE38B207E1F70E94AF
:1000B000C8020C941C030C9400008AE050E840E451
:1000C00030E290E155BB209160002BBBE7EEF3E0FE
:1000D0003197F1F700C00000209161002BBB45BBB8
:1000E000E7EEF3E03197F1F700C0000020916200E5
:1000F0002BBB35BBE7EEF3E03197F1F700C0000012
:10010000209163002BBB95BBE7EEF3E03197F1F74D
:1001100000C000008150B1F608952F923F924F9297
:100120005F926F927F928F929F92AF92BF92CF9287
:10013000DF92EF92FF920F931F93CF93DF93CDB790
:10014000DEB72B970FB6F894DEBF0FBECDBF898305
:100150006A834B832C83209172002D8330917B0026
:100160003E8340917A004F83809179008887209167
:1001700078002987309177003A87409176004B8745
:1001800090917500D0907400C0907300B09068009A
:10019000A090690090906A0080906B0070906C0055
:1001A00060906D0050906E0040906F003090700035
:1001B00020907100FE0131967F01A0E6B0E080E062
:1001C000062F10E0813009F50A301105E0F5F8013D
:1001D000E65DFF4F0C9416034D8114C0C092610080
:1001E00032C0D09261002FC0909361002CC04B852B
:1001F00009C04A8507C0498505C0488503C04F81AD
:1002000001C04E81409361001EC0F701408150E063
:100210004A305105C0F4FA01EC5CFF4F0C94160310
:10022000BC9211C0AC920FC09C920DC08C920BC0BE
:100230007C9209C06C9207C05C9205C04C9203C0CE
:100240003C9201C02C928F5FFFEFEF1AFF0A1196CC
:10025000843009F0B7CF2B960FB6F894DEBF0FBEEF
:10026000CDBFDF91CF911F910F91FF90EF90DF9065
:10027000CF90BF90AF909F908F907F906F905F9046
:100280004F903F902F900895CF93DF9300D000D0F0
:10029000CDB7DEB780917C0090917D00A0917E006B
:1002A000B0917F0089839A83AB83BC83FE01319632
:1002B0009E012B5F3F4F819182BB87EE93E00197B8
:1002C000F1F700C0000080B38F778F3789F18E354A
:1002D00039F178F48E3301F130F48B33D9F08D336A
:1002E00039F582E02CC08B35C9F08D3509F585E0F4
:1002F00026C08E36C9F030F48B36A1F08D36C1F4AD
:1003000088E01DC08537D1F0863781F0833781F4CE
:100310008AE015C081E013C083E011C084E00FC003
:1003200086E00DC087E00BC089E009C08BE007C004
:10033000E217F30709F0BFCF82E301C080E00F901E
:100340000F900F900F90DF91CF9108950F931F930F
:10035000CF93DF9300D000D0CDB7DEB719821A82D9
:100360001B821C8280EF85BB00E010E00E944401EC
:100370008A3060F401110FC0E1E0F0E0EC0FFD1FE6
:10038000E10FF11D80831F5F01E023C08B3009F472
:1003900042C08233E9F01430E1F48A3009F581E992
:1003A0008093600086E08093610082E98093620020
:1003B0008FEF809363000E945D000E9444018B30A8
:1003C000D1F724E043E062E081E00E948D0023C089
:1003D00000E0153028F019821A821B821C8210E07E
:1003E0008FE097E20197F1F700C000008981833028
:1003F00008F0BCCF6A81653008F0B8CF4B81463039
:1004000008F0B4CF2C812A3008F0B0CF0E948D00C4
:100410000E945D00ABCF80E00F900F900F900F9087
:10042000DF91CF911F910F91089580B9089584EACB
:1004300086BF06B607FEFDCF089583B984E886BF60
:1004400006B607FEFDCF0895CF93DF93D82FC62FB2
:100450000E9417028D2F0E941D028C2F0E941D02E8
:1004600084E986BFDF91CF91089584E986BF08951E
:1004700084EC86BF06B607FEFDCF83B1089584E8FD
:1004800086BF06B607FEFDCF83B108958CE090E0ED
:100490000E9415020E94170280ED0E941D028EE04C
:1004A0000E941D0280E00E941D020E9435028CE025
:1004B00090E00895CF93DF93EC010E94170280ED46
:1004C0000E941D0280E00E941D0288810E941D0280
:1004D00089810E941D028A810E941D028B810E94D7
:1004E0001D028C810E941D028D810E941D028E8141
:1004F0000E941D02DF91CF910C943502CF93DF93C0
:10050000EC010E94170280ED0E941D0280E00E9413
:100510001D020E9435020E94170281ED0E941D02F9
:100520000E94380288830E94380289830E94380220
:100530008A830E9438028B830E9438028C830E9437
:1005400038028D830E943F028E83DF91CF910C94FD
:1005500035026AE00E94080320E1829F900D112479
:10056000892F0895982F87FF02C09FE0980F9595D7
:10057000959595959595990F292F220F220F920FFA
:100580008F7887FF03C08150806F8F5F890F089538
:100590000E9446028FEF8ABB84BB98E791BB82BB67
:1005A0009EEC9093600091EA9093610091E99093A2
:1005B000620080936300CAE087E890E00E947E02B8
:1005C000809187000E94B2028A3038F06C2F0E941E
:1005D000FC0229E049E0692F04C029E049E069E014
:1005E00080E00E948D000E9444018A3011F40E9434
:1005F000A6010E945D00E0CF991B79E004C0991F1D
:10060000961708F0961B881F7A95C9F7809508956C
:1006100087FB082E062687FD819567FD61950E9460
:10062000FC020EF4919507FC81950895EE0FFF1FD3
:0C0630000590F491E02D0994F894FFCFA0
:10063C004079243070B0D0E0C0F9A4B0999282F81F
:10064C008090407924301912027800103F5F6F7748
:00000001FF
