:100000000C942A000C9447000C9447000C94470071
:100010000C9447000C9447000C9447000C94470044
:100020000C9447000C9447000C9447000C94470034
:100030000C9447000C9447000C9447000C94470024
:100040000C9447000C9447000C9447000C94470014
:100050000C94470011241FBECFE5D4E0DEBFCDBF16
:1000600010E0A0E6B0E0E4EAF1E002C005900D92F5
:10007000A038B107D9F720E0A0E8B0E001C01D9298
:10008000A238B207E1F70E94C7000C94D0000C948C
:1000900000008AE090E020E8309180003BBB25BB67
:1000A0000197D1F70895CF93DF93CDB7DEB72897A7
:1000B0000FB6F894DEBF0FBECDBF88E0E8E7F0E0F2
:1000C000DE01119601900D928A95E1F7FE013196BD
:1000D0009E01275F3F4F90E88081329682BBA3EC60
:1000E000B9E01197F1F700C0000080B395BB8F779E
:1000F0008F3709F43FC08E3589F188F48E3341F192
:1001000038F48B3311F18D33A9F58091640031C03F
:100110008B3509F18D3571F580916A002AC08E36D4
:1001200019F138F48B36E9F08D3621F580917000A5
:1001300020C0853739F08637D1F08337D9F48091E4
:10014000740017C08091600014C08091620011C0DB
:10015000809166000EC0809168000BC080916C0099
:1001600008C080916E0005C08091720002C080912D
:1001700076008BBBE217F30709F0AECF28960FB6D7
:10018000F894DEBF0FBECDBFDF91CF9108958FEF02
:100190008ABB84BB98E791BB82BB0E945300FDCF12
:0401A000F894FFCF01
:1001A4004000790024003000190012000200780099
:1001B40000001000360049003F005F006F00770028
:00000001FF
