:100000000C943E000C945B000C945B000C945B0021
:100010000C945B000C945B000C945B000C945B00F4
:100020000C945B000C945B000C945B000C945B00E4
:100030000C945B000C945B000C945B000C945B00D4
:100040000C945B000C945B000C945B000C945B00C4
:100050000C945B004C014E015101540157015901B0
:100060005B015D015F016101700172017401760144
:1000700078017A017C017E018001820111241FBE7A
:10008000CFE5D4E0DEBFCDBF10E0A0E6B0E0ECEC01
:10009000F7E002C005900D92A038B107D9F720E033
:1000A000A0E8B0E001C01D92A239B207E1F70E94BA
:1000B00051030C94E4030C940000CF93DF93CDB76D
:1000C000DEB727970FB6F894DEBF0FBECDBF83E033
:1000D0000E9432038B8388E00E9432038A838AE085
:1000E0000E943203898388E10E9432038D8386E077
:1000F0000E9432038E8383E10E9432038F8387E064
:100100008C83CE0101960E94E30227960FB6F894E5
:10011000DEBF0FBECDBFDF91CF91089582E040E8F2
:1001200030E420E290E145BB509160005BBB45BBF1
:10013000E7EEF3E03197F1F700C0000035BB5091D6
:1001400061005BBB35BBE7EEF3E03197F1F700C030
:10015000000025BB509162005BBB25BBE7EEF3E0DE
:100160003197F1F700C0000095BB509163005BBB75
:1001700095BBE7EEF3E03197F1F700C00000815046
:1001800091F608958AE07FEF60E451E940E236E0BD
:1001900020E192E915BA7BBBE7EEF3E03197F1F786
:1001A00000C0000065BB5BBBE7EEF3E03197F1F701
:1001B00000C0000045BB3BBBE7EEF3E03197F1F731
:1001C00000C0000025BB9BBBE7EEF3E03197F1F7E1
:1001D00000C000008150F1F608952F923F924F9297
:1001E0005F926F927F928F929F92AF92BF92CF92C7
:1001F000DF92EF92FF920F931F93CF93DF93CDB7D0
:10020000DEB72B970FB6F894DEBF0FBECDBF898344
:100210006A834B832C83209172002D8330917B0065
:100220003E8340917A004F838091790088872091A6
:1002300078002987309177003A87409176004B8784
:1002400090917500D0907400C0907300B0906800D9
:10025000A090690090906A0080906B0070906C0094
:1002600060906D0050906E0040906F003090700074
:1002700020907100FE0131967F01A0E6B0E080E0A1
:10028000062F10E0813009F50A301105E0F5F8017C
:10029000E65DFF4F0C94DE034D8114C0C0926100F7
:1002A00032C0D09261002FC0909361002CC04B856A
:1002B00009C04A8507C0498505C0488503C04F81EC
:1002C00001C04E81409361001EC0F701408150E0A3
:1002D0004A305105C0F4FA01EC5CFF4F0C94DE0388
:1002E000BC9211C0AC920FC09C920DC08C920BC0FE
:1002F0007C9209C06C9207C05C9205C04C9203C00E
:100300003C9201C02C928F5FFFEFEF1AFF0A11960B
:10031000843009F0B7CF2B960FB6F894DEBF0FBE2E
:10032000CDBFDF91CF911F910F91FF90EF90DF90A4
:10033000CF90BF90AF909F908F907F906F905F9085
:100340004F903F902F900895CF92DF92EF92FF92BF
:100350000F931F93CF93DF93DC016B01E701809133
:1003600083008A3038F06AE00E94C403F801808379
:10037000988303C0F80110828883809181008A30BD
:1003800040F06AE00E94C403FA018083F90190837F
:1003900004C0FA011082F9018083809182008A30C2
:1003A00038F06AE00E94C4038C93F601908303C086
:1003B0001C92F6018083DF91CF911F910F91FF90E6
:1003C000EF90DF90CF900895CF93DF9300D000D0CF
:1003D000CDB7DEB780917C0090917D00A0917E002A
:1003E000B0917F0089839A83AB83BC83FE013196F1
:1003F0009E012B5F3F4F819182BB87EE93E0019777
:10040000F1F700C0000080B38F778F3789F18E3508
:1004100039F178F48E3301F130F48B33D9F08D3328
:1004200039F582E02CC08B35C9F08D3509F585E0B2
:1004300026C08E36C9F030F48B36A1F08D36C1F46B
:1004400088E01DC08537D1F0863781F0833781F48D
:100450008AE015C081E013C083E011C084E00FC0C2
:1004600086E00DC087E00BC089E009C08BE007C0C3
:10047000E217F30709F0BFCF82E301C080E00F90DD
:100480000F900F900F90DF91CF9108950F931F93CE
:10049000CF93DF9300D000D0CDB7DEB719821A8298
:1004A0001B821C8280EF85BB00E010E00E94E4010B
:1004B0008A3060F401110EC0E1E0F0E0EC0FFD1FA6
:1004C000E10FF11D80831F5F01E010C08B3061F1EF
:1004D000823359F0143051F48A3079F40E94C2000A
:1004E0000E94E4018B30D1F71FC000E0153028F0E6
:1004F00019821A821B821C8210E08FE097E201971A
:10050000F1F700C000008981833080F66A81653090
:1005100068F64B81463050F62C812A3038F60E941E
:10052000ED000E948E00C2CF80E00F900F900F90E0
:100530000F90DF91CF911F910F91089580B9089589
:1005400084EA86BF06B607FEFDCF089583B984E826
:1005500086BF06B607FEFDCF0895CF93DF93D82F51
:10056000C62F0E94A0028D2F0E94A6028C2F0E94EF
:10057000A60284E986BFDF91CF91089584E986BF02
:10058000089584EC86BF06B607FEFDCF83B10895BB
:1005900084E886BF06B607FEFDCF83B108958CE0E0
:1005A00090E00E949E020E94A00280ED0E94A6029E
:1005B0008EE00E94A60280E00E94A6020E94BE0277
:1005C0008CE090E00895CF93DF93EC010E94A002AD
:1005D00080ED0E94A60280E00E94A60288810E940F
:1005E000A60289810E94A6028A810E94A6028B81AE
:1005F0000E94A6028C810E94A6028D810E94A60202
:100600008E810E94A602DF91CF910C94BE02CF93FF
:10061000DF93EC010E94A00280ED0E94A60280E020
:100620000E94A6020E94BE020E94A00281ED0E94CA
:10063000A6020E94C10288830E94C10289830E948F
:10064000C1028A830E94C1028B830E94C1028C83F3
:100650000E94C1028D830E94C8028E83DF91CF91D8
:100660000C94BE026AE00E94D00320E1829F900DAC
:100670001124892F0895982F87FF02C09FE0980FBB
:100680009595959595959595990F292F220F220F60
:10069000920F8F7887FF03C08150806F8F5F890F23
:1006A0000895CF93DF9300D000D000D0CDB7DEB750
:1006B0000E94CF028FEF8ABB84BB98E791BB82BBBD
:1006C0009EEC9093600091EA9093610091E9909381
:1006D000620080936300DD24D3948BE890E00E9455
:1006E000070380918B000E943B03809383008091DD
:1006F0008D000E943B038093820080918C000E94B9
:100700003B03809381001E821D821C821B821A8201
:100710001982CE0101967C018E010E5F1F4F9E0152
:100720002D5F3F4FAE014C5F5F4FBE016B5F7F4F50
:1007300005960E94A40180918000882329F02981D8
:100740004A816B818C8104C02B814C816D818E81AB
:100750000E94ED000E94E4018A3019F40E944602D2
:1007600010C08B3071F4809180008D2580938000C3
:100770009FE728E381E0915020408040E1F700C0EE
:1007800000000E948E00A9CF991B79E004C0991F38
:10079000961708F0961B881F7A95C9F780950895DB
:1007A00087FB082E062687FD819567FD61950E94CF
:1007B000C4030EF4919507FC81950895EE0FFF1F79
:0C07C0000590F491E02D0994F894FFCF0F
:1007CC004079243070B0D0E0C0F9A4B0999282F88E
:1007DC008090407924301912027800103F5F6F77B7
:00000001FF
