:100000000C942A000C943F000C943F000C943F0089
:100010000C943F000C943F000C943F000C943F0064
:100020000C943F000C943F000C943F000C943F0054
:100030000C943F000C943F000C943F000C943F0044
:100040000C943F000C943F000C943F000C943F0034
:100050000C943F0011241FBECFE5D4E0DEBFCDBF1E
:1000600010E0A0E6B0E0E2E7F1E002C005900D92FA
:10007000AC37B107D9F70E94B2000C94B7000C94CA
:100080000000089560E070E040E050E020E030E0E3
:1000900080E090E0B0E88B2EC0E47C2ED0E2BD2E54
:1000A00010E1A12E2A3031051CF0019620E030E04D
:1000B0004A30510524F02F5F3F4F40E050E06A3056
:1000C000710524F04F5F5F4F60E070E0EAE0F0E020
:1000D000EC01CC0FDD1F8E0108591F4F6801E901AB
:1000E000CC0FDD1FDE01A859BF4F7D018A01000F33
:1000F000111F08591F4FEB01CC0FDD1FC859DF4FEF
:10010000D6019C909BBA85BAA9EFB0E01197F1F7A0
:1001100000C00000D7019C909BBA75BAA9EFB0E06F
:100120001197F1F700C00000D8019C909BBAB5BAB6
:10013000A9EFB0E01197F1F700C0000098809BBADA
:10014000A5BAA9EFB0E01197F1F700C00000319710
:10015000B9F66F5F7F4F8A3091050CF4A3CF80E032
:1001600090E0A0CF8FEF8ABB84BB0E944200F8943E
:02017000FFCFBF
:100172007000B000D000E0004000790024003000A0
:0C018200190012000200780000001000BC
:00000001FF
