:100000000C9434000C9449000C9449000C94490061
:100010000C9449000C9449000C9449000C9449003C
:100020000C9449000C9449000C9449000C9449002C
:100030000C9449000C9449000C9449000C9449001C
:100040000C9449000C9449000C9449000C9449000C
:100050000C944900D800DC00E000E400E800EC006B
:10006000F000F400F800FC0011241FBECFE5D4E03E
:10007000DEBFCDBF10E0A0E6B0E0EAE6F2E002C0ED
:1000800005900D92A438B107D9F70E941D010C9478
:1000900033010C94000008958AE090E060E850E499
:1000A00040E220E1309160003BBB65BBE9EFF0E04E
:1000B0003197F1F700C00000309162003BBB55BBA7
:1000C000E9EFF0E03197F1F700C0000030916400F3
:1000D0003BBB45BBE9EFF0E03197F1F700C0000012
:1000E000309166003BBB25BBE9EFF0E03197F1F7BB
:1000F00000C000000197B1F608952F923F924F92F1
:100100005F926F927F928F929F92AF92BF92CF92A7
:10011000DF92EF92FF920F931F93CF93DF93CDB7B0
:10012000DEB728970FB6F894DEBF0FBECDBF9A8317
:1001300089837C836B835E834D8338872F834090D4
:100140007000509071006090720070907300809009
:100150007400909075002091760030917700409166
:1001600078005091790060917A0070917B00009145
:100170007C0010917D00E0907E00F0907F00C090A8
:100180008000D0908100A0908200B0908300CE01CA
:100190000196A0E6B0E0FC0121903190CF01FAE099
:1001A0002F16310460F5F101E65DFF4F0C942D012F
:1001B00011965C924E9223C011967C926E921FC053
:1001C00011969C928E921BC011963C932E9317C051
:1001D00011965C934E9313C011967C936E930FC04F
:1001E00011961C930E930BC01196FC92EE9207C0D1
:1001F0001196DC92CE9203C01196BC92AE921296EA
:10020000E0E0A836BE0739F628960FB6F894DEBFB0
:100210000FBECDBFDF91CF911F910F91FF90EF9057
:10022000DF90CF90BF90AF909F908F907F906F9016
:100230005F904F903F902F9008958FEF8ABB84BBC3
:1002400029E030E046E050E065E070E083E090E0D7
:100250000E947D000E944C00FDCFEE0FFF1F059015
:0A026000F491E02D0994F894FFCF0B
:10026A0040007900240030007000B000D000E000A7
:10027A0040007900240030001900120002007800C2
:04028A000000100060
:00000001FF
