:100000000C943E000C945B000C945B000C945B0021
:100010000C945B000C945B000C945B000C945B00F4
:100020000C945B000C945B000C945B000C945B00E4
:100030000C945B000C945B000C945B000C945B00D4
:100040000C945B000C945B000C945B000C945B00C4
:100050000C945B004E0150015301560159015B01A4
:100060005D015F0161016301720174017601780134
:100070007A017C017E0180018201840111241FBE6E
:10008000CFE5D4E0DEBFCDBF10E0A0E6B0E0EAEF00
:10009000F7E002C005900D92A038B107D9F720E033
:1000A000A0E8B0E001C01D92A239B207E1F70E94BA
:1000B00068030C94FB030C9400001F93CF93DF9311
:1000C000CDB7DEB727970FB6F894DEBF0FBECDBF12
:1000D000162F0E9449038B83812F0E9449038A8334
:1000E0008AE00E94490389838BE00E9449038D8343
:1000F00088E00E9449038E8383E10E9449038F8335
:1001000087E08C83CE0101960E94FA0227960FB6F3
:10011000F894DEBF0FBECDBFDF91CF911F91089540
:1001200082E040E830E420E290E145BB509160007D
:100130005BBB45BBE7EEF3E03197F1F700C0000091
:1001400035BB509161005BBB35BBE7EEF3E0319707
:10015000F1F700C0000025BB509162005BBB25BBDE
:10016000E7EEF3E03197F1F700C0000095BB509146
:1001700063005BBB95BBE7EEF3E03197F1F700C09E
:100180000000815091F608958AE07FEF60E451E924
:1001900040E236E020E192E915BA7BBBE7EEF3E0FE
:1001A0003197F1F700C0000065BB5BBBE7EEF3E001
:1001B0003197F1F700C0000045BB3BBBE7EEF3E031
:1001C0003197F1F700C0000025BB9BBBE7EEF3E0E1
:1001D0003197F1F700C000008150F1F608952F9299
:1001E0003F924F925F926F927F928F929F92AF92C7
:1001F000BF92CF92DF92EF92FF920F931F93CF9314
:10020000DF93CDB7DEB72B970FB6F894DEBF0FBEE6
:10021000CDBF89836A834B832C83209172002D8309
:1002200030917B003E8340917A004F83809179002A
:100230008887209178002987309177003A8740910C
:1002400076004B8790917500D0907400C090730039
:10025000B0906800A090690090906A0080906B0058
:1002600070906C0060906D0050906E0040906F0038
:100270003090700020907100FE0131967F01A0E661
:10028000B0E080E0062F10E0813009F50A3011055A
:10029000E0F5F801E65DFF4F0C94F5034D8114C0C5
:1002A000C092610032C0D09261002FC09093610073
:1002B0002CC04B8509C04A8507C0498505C04885C3
:1002C00003C04F8101C04E81409361001EC0F70101
:1002D000408150E04A305105C0F4FA01EC5CFF4F18
:1002E0000C94F503BC9211C0AC920FC09C920DC04F
:1002F0008C920BC07C9209C06C9207C05C9205C0C6
:100300004C9203C03C9201C02C928F5FFFEFEF1A1A
:10031000FF0A1196843009F0B7CF2B960FB6F894E8
:10032000DEBF0FBECDBFDF91CF911F910F91FF9028
:10033000EF90DF90CF90BF90AF909F908F907F9085
:100340006F905F904F903F902F900895CF92DF92E3
:10035000EF92FF920F931F93CF93DF93DC016B011A
:10036000E701809183008A3038F06AE00E94DB0365
:10037000F8018083988303C0F801108288838091FC
:1003800081008A3040F06AE00E94DB03FA0180833A
:10039000F901908304C0FA011082F90180838091F1
:1003A00082008A3038F06AE00E94DB038C93F60109
:1003B000908303C01C92F6018083DF91CF911F913F
:1003C0000F91FF90EF90DF90CF900895CF93DF9340
:1003D00000D000D0CDB7DEB780917C0090917D0039
:1003E000A0917E00B0917F0089839A83AB83BC8308
:1003F000FE0131969E012B5F3F4F819182BB87EEBC
:1004000093E00197F1F700C0000080B38F778F373A
:1004100089F18E3539F178F48E3301F130F48B3374
:10042000D9F08D3339F582E02CC08B35C9F08D358C
:1004300009F585E026C08E36C9F030F48B36A1F080
:100440008D36C1F488E01DC08537D1F0863781F044
:10045000833781F48AE015C081E013C083E011C0C6
:1004600084E00FC086E00DC087E00BC089E009C0C2
:100470008BE007C0E217F30709F0BFCF82E301C0AA
:1004800080E00F900F900F900F90DF91CF91089523
:100490000F931F93CF93DF9300D000D0CDB7DEB77B
:1004A00019821A821B821C8280EF85BB00E010E05B
:1004B0000E94E6018A3060F401110FC0E1E0F0E033
:1004C000EC0FFD1FE10FF11D80831F5F01E021C0D4
:1004D0008B3009F440C08233D9F01430D1F48A3023
:1004E000F9F489811A819AE0899F100D11248B817A
:1004F0000C819AE0899F000D11240E94C4000E9483
:10050000E6018B30D1F7602F812F0E945D0023C060
:1005100000E0153028F019821A821B821C8210E03C
:100520008FE097E20197F1F700C0000089818330E6
:1005300008F0BECF6A81643008F0BACF4B814630F4
:1005400008F0B6CF2C812A3008F0B2CF0E94EF001D
:100550000E949000ADCF80E00F900F900F900F9011
:10056000DF91CF911F910F91089580B9089584EA8A
:1005700086BF06B607FEFDCF089583B984E886BF1F
:1005800006B607FEFDCF0895CF93DF93D82FC62F71
:100590000E94B7028D2F0E94BD028C2F0E94BD02C7
:1005A00084E986BFDF91CF91089584E986BF0895DD
:1005B00084EC86BF06B607FEFDCF83B1089584E8BC
:1005C00086BF06B607FEFDCF83B108958CE090E0AC
:1005D0000E94B5020E94B70280ED0E94BD028EE02B
:1005E0000E94BD0280E00E94BD020E94D5028CE004
:1005F00090E00895CF93DF93EC010E94B70280ED65
:100600000E94BD0280E00E94BD0288810E94BD025E
:1006100089810E94BD028A810E94BD028B810E9455
:10062000BD028C810E94BD028D810E94BD028E811F
:100630000E94BD02DF91CF910C94D502CF93DF933E
:10064000EC010E94B70280ED0E94BD0280E00E9492
:10065000BD020E94D5020E94B70281ED0E94BD0238
:100660000E94D80288830E94D80289830E94D802FF
:100670008A830E94D8028B830E94D8028C830E94B6
:10068000D8028D830E94DF028E83DF91CF910C947C
:10069000D5026AE00E94E70320E1829F900D1124B9
:1006A000892F0895982F87FF02C09FE0980F959596
:1006B000959595959595990F292F220F220F920FB9
:1006C0008F7887FF03C08150806F8F5F890F0895F7
:1006D000CF93DF9300D000D000D0CDB7DEB70E941B
:1006E000E6028FEF8ABB84BB98E791BB82BB9EEC8E
:1006F0009093600091EA9093610091E99093620079
:1007000080936300DD24D3948BE890E00E941E0365
:1007100080918B000E9452038093830080918D0012
:100720000E9452038093820080918C000E945203A9
:10073000809381001E821D821C821B821A82198274
:10074000CE0101967C018E010E5F1F4F9E012D5F31
:100750003F4FAE014C5F5F4FBE016B5F7F4F059611
:100760000E94A60180918000882329F029814A8176
:100770006B818C8104C02B814C816D818E810E94A4
:10078000EF000E94E6018A3019F40E94480210C06E
:100790008B3071F4809180008D25809380009FE7DD
:1007A00028E381E0915020408040E1F700C0000044
:1007B0000E949000A9CF991B79E004C0991F961759
:1007C00008F0961B881F7A95C9F78095089587FBD6
:1007D000082E062687FD819567FD61950E94DB0343
:1007E0000EF4919507FC81950895EE0FFF1F05907B
:0A07F000F491E02D0994F894FFCF76
:1007FA004079243070B0D0E0C0F9A4B0999282F860
:10080A008090407924301912027800103F5F6F7788
:00000001FF
