:100000000C943E000C945B000C945B000C945B0021
:100010000C945B000C945B000C945B000C945B00F4
:100020000C945B000C945B000C945B000C945B00E4
:100030000C945B000C945B000C945B000C945B00D4
:100040000C945B000C945B000C945B000C945B00C4
:100050000C945B00710173017501770179017B01DB
:100060007D017F018101830190019201950197013A
:1000700099019B019D019F01A101A30111241FBEB4
:10008000CFE5D4E0DEBFCDBF10E0A0E6B0E0ECE508
:10009000FFE002C005900D92A03EB107D9F721E024
:1000A000A0EEB0E001C01D92AB30B207E1F70E94B4
:1000B000F1060C94AC070C9400001F93CF93DF93D0
:1000C000CDB7DEB727970FB6F894DEBF0FBECDBF12
:1000D000883120F46C3310F4162F02C010E080E059
:1000E0000E94D2068B83812F0E94D2068A838AE0E7
:1000F0000E94D20689838BE00E94D2068D8388E01D
:100100000E94D2068E8383E10E94D2068F8387E00D
:100110008C83CE0101960E94830627960FB6F89431
:10012000DEBF0FBECDBFDF91CF911F91089592E04A
:1001300083B38F70806885BB8091C0008BBBE7EE76
:10014000F3E03197F1F700C0000083B38F70806453
:1001500085BB8091C1008BBBE7EEF3E03197F1F7EF
:1001600000C0000083B38F70806285BB8091C200A5
:100170008BBBE7EEF3E03197F1F700C0000083B3EB
:100180008F70806185BB8091C3008BBBE7EEF3E08D
:100190003197F1F700C00000915051F608959AE0B0
:1001A0005FEF41E936E022E983B38F7085BB5BBB2B
:1001B000E7EEF3E03197F1F700C0000083B38F70F2
:1001C000806485BB4BBBE7EEF3E03197F1F700C0ED
:1001D000000083B38F70806285BB3BBBE7EEF3E02A
:1001E0003197F1F700C0000083B38F70806185BB49
:1001F0002BBBE7EEF3E03197F1F700C00000915020
:1002000099F608952F923F924F925F926F927F924C
:100210008F929F92AF92BF92CF92DF92EF92FF9216
:100220000F931F93CF93DF93CDB7DEB72B970FB606
:10023000F894DEBF0FBECDBF89836A834B832C83C6
:10024000D090D200B090DB009090DA008090D9007E
:100250007090D8006090D7005090D6004090D500A4
:100260003090D4002090D3004091C8004D838091FD
:10027000C9008E834091CA004F838091CB0088874C
:100280004091CC0049878091CD008A874091CE0073
:100290004B879091CF001091D000F090D100A0EC4E
:1002A000B0E09E012F5F3F4F80E0811103C001113C
:1002B0000DC02BC0813019F4E11008C026C0823077
:1002C00019F4C11003C021C0AA20F9F0F90140813E
:1002D00050E04A305105C0F5FA01E65DFF4F0C943D
:1002E000A607DC9231C02C922FC03C922DC04C92BC
:1002F0002BC05C9229C06C9227C07C9225C08C9246
:1003000023C09C9221C0BC921FC0F901408150E0E3
:100310004A305105C8F4FA01EC5CFF4F0C94A60773
:100320004D8101C04E814C930FC04F81FCCF488559
:10033000FACF4985F8CF4A85F6CF4B85F4CF9C9309
:1003400003C01C9301C0FC928F5F11962F5F3F4F3B
:10035000843009F0AACF2B960FB6F894DEBF0FBEFB
:10036000CDBFDF91CF911F910F91FF90EF90DF9064
:10037000CF90BF90AF909F908F907F906F905F9045
:100380004F903F902F900895E0ECF0E080836183E0
:10039000428323830895CF92DF92EF92FF920F93CF
:1003A0001F93CF93DF93DC016B01E7018091EA009B
:1003B0008A3038F06AE00E948C07F80180839883C5
:1003C00003C0F801108288838091E8008A3040F0F1
:1003D0006AE00E948C07FA018083F901908304C0CF
:1003E000FA011082F90180838091E9008A3038F0A7
:1003F0006AE00E948C078C93F601908303C01C92E4
:10040000F6018083DF91CF911F910F91FF90EF90C4
:10041000DF90CF900895DF92EF92FF920F931F939A
:10042000CF93DF93D62EE801D7018A3040F06AE0FF
:100430000E948C07FA018083F901908304C0FA01BD
:100440001082F9018083F9E0FD1538F48D2D6AE002
:100450000E948C0788839C9302C01882DC92DF91F3
:10046000CF911F910F91FF90EF90DF900895CF9360
:10047000DF9300D000D0CDB7DEB78091DC00909143
:10048000DD00A091DE00B091DF0089839A83AB8309
:10049000BC83FE0131969E012B5F3F4F819182BB51
:1004A00087EE93E00197F1F700C0000080B38F77EB
:1004B0008F3789F18E3539F178F48E3301F130F4CC
:1004C0008B33D9F08D3339F582E02CC08B35C9F0F0
:1004D0008D3509F585E026C08E36C9F030F48B36AF
:1004E000A1F08D36C1F488E01DC08537D1F0863784
:1004F00081F0833781F48AE015C081E013C083E086
:1005000011C084E00FC086E00DC087E00BC089E019
:1005100009C08BE007C0E217F30709F0BFCF82E301
:1005200001C080E00F900F900F900F90DF91CF915E
:1005300008950E94370287708730D9F708950E9486
:1005400037028A3029F08B3029F00E949700F7CFCC
:1005500081E0089580E008952F923F924F925F923C
:100560006F927F928F929F92AF92CF92EF92FF9273
:100570000F931F93CF93DF9300D000D0CDB7DEB79A
:100580004C013B012A01190119821A821B821C822B
:10059000F12C10E00E9437028A3068F4F1100FC08D
:1005A000E1E0F0E0EC0FFD1FE10FF11D80831F5F24
:1005B000FF24F3941AC08B3099F18233A9F01430E0
:1005C000A1F48A30C9F40E9437028B30E1F78981A7
:1005D000F40180838A81F30180838B81F20180831F
:1005E0008C81F10180831CC0F12C153028F0198218
:1005F0001A821B821C8210E08FE097E20197F1F7CC
:1006000000C00000A12CC12CEE24E39400E02C815A
:100610004B816A8189810E9402010E949700BACFB2
:1006200080E00F900F900F900F90DF91CF911F916E
:100630000F91FF90EF90CF90AF909F908F907F9011
:100640006F905F904F903F902F900895CF93DF93DE
:1006500000D000D0CDB7DEB79E012F5F3F4FAE0177
:100660004E5F5F4FBE016D5F7F4FCE0104960E94CB
:10067000AC029C81933020F58B81843020F0923045
:10068000F9F08A30E8F48A818630D0F489818A30A2
:10069000B8F40E94CF000E9437028B3019F00E94FC
:1006A0009700F7CF8A8169812AE0829F600D11242B
:1006B0009C818B812AE0929F800D11240E945D0015
:1006C0000F900F900F900F90DF91CF910895AF9200
:1006D000CF92EF920F93A12CC12CE12C00E021E0EE
:1006E00040E060E089E00E9402010E9437028A3007
:1006F00029F08B3039F00E949700F7CF81E080938A
:10070000E00002C01092E00080E00F91EF90CF90E7
:10071000AF900895EF92FF920F931F93CF93DF93C3
:10072000D801F7018130B1F470E0EB01C657DF4F1B
:100730008881EA018883EB01CC57DF4F8881E9018A
:100740008883EB01C258DF4F88818C93DB01A85866
:10075000BF4F17C08230B9F470E0EB01CE58DF4FC5
:100760008881EA018883EB01C459DF4F8881E90160
:100770008883EB01CA59DF4F88818C93DB01A05A33
:10078000BF4F8C918083DF91CF911F910F91FF908C
:10079000EF9008950F931F93CF93DF93CDB7DEB7FC
:1007A00028970FB6F894DEBF0FBECDBF082F162FC7
:1007B00086E88093C0008FEB8093C10080EC80932B
:1007C000C2008BEA8093C3000E9497000E94370208
:1007D0008A30D1F79E012B5F3F4FAE014A5F5F4FDA
:1007E000BE01695F7F4FCE0108960E94AC0286E889
:1007F0008093C0008FEB8093C10080EC8093C20097
:100800008EE88093C3000E9497000E9437028A30CE
:10081000D1F79E012F5F3F4FAE014E5F5F4FBE018C
:100820006D5F7F4FCE0104960E94AC029885933095
:1008300008F06FC08F81843030F0923009F469C0C5
:100840008A3008F066C08E81863008F062C08D81E3
:100850008A3008F05EC09C81933008F05AC08B81CA
:10086000843030F0923009F454C08A3008F051C01E
:100870008A81863008F04DC089818A3008F049C0ED
:100880000E94CF000E9437028B3019F00E9497001F
:10089000F7CF88853F814AE0849F300D11248E81F7
:1008A0002D815AE0859F200D11248C819B814AE087
:1008B000849F900D11244A8189815AE0459F800DC3
:1008C0001124013091F4612F70E0FB01E657FF4FD6
:1008D0003083FB01EC57FF4F2083FB01E258FF4FB1
:1008E0009083FB01E858FF4F13C0023091F4612F51
:1008F00070E0FB01EE58FF4F3083FB01E459FF4FDE
:100900002083FB01EA59FF4F9083FB01E05AFF4F20
:10091000808328960FB6F894DEBF0FBECDBFDF915F
:10092000CF911F910F9108955F926F927F928F9256
:100930009F92AF92BF92CF92DF92EF92FF920F936E
:100940001F93CF93DF9300D000D0CDB7DEB7982EA2
:10095000D62E842E722E602E5E2CBB24B394CE0134
:1009600001967C018E010E5F1F4F9E012D5F3F4F50
:10097000AE014C5F5F4FBB2039F0672D882D0E9480
:100980000B02AA24A39405C0652D862D0E940B029C
:10099000A12CC12CEE24E39400E029814A816B81D3
:1009A0008C810E9402010E9437028A3019F481E092
:1009B000B82638C08B30C9F181112DC091E0991251
:1009C00013C06D2D70E0FB01E657FF4F88E5808373
:1009D000FB01EC57FF4F8083FB01E258FF4F808300
:1009E000FB01E858FF4F15C082E098121EC06D2D24
:1009F00070E0FB01EE58FF4F88E58083FB01E4596E
:100A0000FF4F8083FB01EA59FF4F8083FB01E05ACF
:100A1000FF4F80830AC0893029F46D2D892D0E94F3
:100A2000CA0303C00E9497009ACF0F900F900F90B7
:100A30000F90DF91CF911F910F91FF90EF90DF907A
:100A4000CF90BF90AF909F908F907F906F905F906E
:100A50000895AF92CF92DF92EF92FF920F931F9380
:100A6000CF93DF9300D000D0CDB7DEB7A12CC12C3F
:100A7000E12C00E021E040E061E089E00E94020119
:100A80000E9437028A3029F08B3029F00E949700AB
:100A9000F7CF11E001C010E0A12CC12CE12C00E047
:100AA00022E040E061E089E00E940201112359F058
:100AB0000E943702813049F0823051F08B3019F0BA
:100AC0000E949700F5CFD12C05C0DD24D39402C03D
:100AD00092E0D92E8FEF8D0D823008F0C1C081E0F9
:100AE000D812B3C080EC8093C0008CE88093C10022
:100AF0008FEB8093C20089EF8093C3000E949F0216
:100B0000811103C00E949700F9CF8FEBC82E0E947D
:100B10003702CBBA833009F450C0D8F48130B9F130
:100B2000823009F08FC0CE0101967C018E010E5FEC
:100B30001F4F9E012D5F3F4FAE014C5F5F4F62E044
:100B40008D2D0E948A03E9800A812B814C8162E00D
:100B500075C0853009F45DC008F445C0863009F0E1
:100B600071C0CE0101967C018E010E5F1F4F9E0168
:100B70002D5F3F4FAE014C5F5F4F66E08D2D0E94B1
:100B80008A03E9800A812B814C8166E057C0CE013F
:100B900001967C018E010E5F1F4F9E012D5F3F4F1E
:100BA000AE014C5F5F4F61E08D2D0E948A03E980AA
:100BB0000A812B814C8161E041C0CE0101967C010C
:100BC0008E010E5F1F4F9E012D5F3F4FAE014C5FA8
:100BD0005F4F63E08D2D0E948A03E9800A812B819B
:100BE0004C8163E02BC0CE0101967C018E010E5F2B
:100BF0001F4F9E012D5F3F4FAE014C5F5F4F64E082
:100C00008D2D0E948A03E9800A812B814C8164E04A
:100C100015C0CE0101967C018E010E5F1F4F9E0113
:100C20002D5F3F4FAE014C5F5F4F65E08D2D0E9401
:100C30008A03E9800A812B814C8165E08D2D0E9419
:100C4000940465CF882361F062CF80EC8093C0006C
:100C50008CE88093C1008FEB8093C20084EA4CCF74
:100C60000F900F900F900F90DF91CF911F910F91E8
:100C7000FF90EF90DF90CF90AF90089580B90895E6
:100C800084EA86BF06B607FEFDCF089583B984E8DF
:100C900086BF06B607FEFDCF0895CF93DF93D82F0A
:100CA000C62F0E9440068D2F0E9446068C2F0E9460
:100CB000460684E986BFDF91CF91089584E986BF17
:100CC000089584EC86BF06B607FEFDCF83B1089574
:100CD00084E886BF06B607FEFDCF83B108958CE099
:100CE00090E00E943E060E94400680ED0E9446066B
:100CF0008EE00E94460680E00E9446060E945E0644
:100D00008CE090E00895CF93DF93EC010E944006C1
:100D100080ED0E94460680E00E94460688810E947F
:100D2000460689810E9446068A810E9446068B817A
:100D30000E9446068C810E9446068D810E944606CE
:100D40008E810E944606DF91CF910C945E06CF9370
:100D5000DF93EC010E94400680ED0E94460680E091
:100D60000E9446060E945E060E94400681ED0E9497
:100D700046060E94610688830E94610689830E945C
:100D800061068A830E9461068B830E9461068C83C0
:100D90000E9461068D830E9468068E83DF91CF9149
:100DA0000C945E066AE00E94980720E1829F900DF5
:100DB0001124892F0895982F87FF02C09FE0980F74
:100DC0009595959595959595990F292F220F220F19
:100DD000920F8F7887FF03C08150806F8F5F890FDC
:100DE0000895CF93DF9300D000D000D0CDB7DEB709
:100DF0001FEF1ABB14BB88E781BB12BB80EF85BB1A
:100E00008FEB8BBB0E946F068EEC8093C00081EA53
:100E10008093C10081E98093C2001093C3008EEFDC
:100E200090E00E94A7068091FE000E94DB0680935E
:100E3000EA00809100010E94DB068093E900809126
:100E4000FF000E94DB068093E8001E821D821C8248
:100E50001B821A821982CE0101967C018E010E5FDF
:100E60001F4F9E012D5F3F4FAE014C5F5F4FBE0194
:100E70006B5F7F4F05960E94CB018091E100A12C12
:100E8000C12CEE24E39400E0882329F029814A81D3
:100E90006B818C8104C02B814C816D818E810E947D
:100EA00002010E9437028A3019F40E9426031BC0F7
:100EB0008B3081F49091E10081E089278093E100FB
:100EC0009FE728E381E0915020408040E1F700C097
:100ED000000009C0813019F40E94670304C0811129
:100EE00002C00E9429058091E000882319F00E9429
:100EF000970003C083B38F7085BB8091E900853173
:100F000039F48091E800853018F483B3877F02C0FC
:100F100083B3886085BB83CF991B79E004C0991F98
:100F2000961708F0961B881F7A95C9F78095089543
:100F300087FB082E062687FD819567FD61950E9437
:100F40008C070EF4919507FC81950895EE0FFF1F15
:0C0F50000590F491E02D0994F894FFCF77
:100F5C003C3C3C3C3C3C1818181818183C3C3C3C9D
:100F6C003C3C1818181818183D3D3D3D3D3D1919CD
:100F7C00191919193C3C3C3C3C3C18181818181809
:100F8C003435363738392E2F3031323328292A2B45
:100F9C002C2D2223242526271C1D1E1F202116172D
:100FAC0018191A1B1011121314150A0B0C0D0E0F15
:100FBC004079243070B0D0E0C0F9A4B0999282F896
:100FCC008090407924301912027800103F5F6F77BF
:00000001FF
