:100000000C943E000C9453000C9453000C94530039
:100010000C9453000C9453000C9453000C94530014
:100020000C9453000C9453000C9453000C94530004
:100030000C9453000C9453000C9453000C945300F4
:100040000C9453000C9453000C9453000C945300E4
:100050000C9453002201250128012B012E013101AE
:10006000340137013A013D01510157015B015F0144
:10007000630167016B016F017301770111241FBEDA
:10008000CFE5D4E0DEBFCDBF10E0A0E6B0E0E6E60D
:10009000F3E002C005900D92A839B107D9F70E948C
:1000A0009B010C94B1010C94000008958AE090E04B
:1000B00060E850E440E220E1309160003BBB65BB6A
:1000C000E9EFF0E03197F1F700C0000030916200F5
:1000D0003BBB55BBE9EFF0E03197F1F700C0000002
:1000E000309164003BBB45BBE9EFF0E03197F1F79D
:1000F00000C00000309166003BBB25BBE9EFF0E09B
:100100003197F1F700C000000197B1F608952F92E2
:100110003F924F925F926F927F928F929F92AF9297
:10012000BF92CF92DF92EF92FF920F931F93CF93E4
:10013000DF93CDB7DEB7A0970FB6F894DEBF0FBE42
:10014000CDBF9A8389837C836B835E834D8338879D
:100150002F8380918400909185009A878987809170
:100160009600909197009C878B8780919400909146
:1001700095009E878D878091920090919300988B37
:100180008F8780919000909191009A8B898B8091BC
:100190008E0090918F009C8B8B8B80918C00909126
:1001A0008D009E8B8D8B80918A0090918B00988F13
:1001B0008F8B80918800909189009A8F898F809190
:1001C0008600909187009C8F8B8F8091700090911A
:1001D00071009E8F8D8F2090720030907300409040
:1001E0007400509075006090760070907700809059
:1001F00078009090790040917A0050917B000091B6
:100200007C0010917D00E0907E00F0907F00C09017
:100210008000D0908100A0908200B09083009E0169
:100220002F5F3F4FA0E6B0E080E090E08130910585
:1002300059F56A30710508F05DC0FB01E65DFF4FBE
:100240000C94AB01E985FA851AC0EB8DFC8D17C0C3
:10025000E98DFA8D14C0EF89F88D11C0ED89FE8902
:100260000EC0EB89FC890BC0E989FA8908C0EF85CB
:10027000F88905C0ED85FE8502C0EB85FC85F0930D
:100280006300E093620036C0F9010190F081E02D37
:10029000F8A3EF8FEA30F10568F5EC5CFF4F0C94A2
:1002A000AB01ED8DFE8D1196FC93EE9323C011965C
:1002B0003C922E921FC011965C924E921BC01196DA
:1002C0007C926E9217C011969C928E9213C01196DA
:1002D0005C934E930FC011961C930E930BC0119616
:1002E000FC92EE9207C01196DC92CE9203C011965A
:1002F000BC92AE9201962E5F3F4F129684309105CC
:1003000009F094CFA0960FB6F894DEBF0FBECDBF14
:10031000DF91CF911F910F91FF90EF90DF90CF90E1
:10032000BF90AF909F908F907F906F905F904F9015
:100330003F902F9008958FEF8ABB84BB29E030E077
:1003400045E050E065E070E080E090E00E948700CA
:100350000E945600FDCFEE0FFF1F0590F491E02D97
:060360000994F894FFCFA0
:1003660040007900240030007000B000D000E000AA
:10037600C000F900A400B000990092008200F800C5
:10038600800090004000790024003000190012001F
:080396000200780000001000D5
:00000001FF
